{
  "_format": "hh-sol-artifact-1",
  "contractName": "PHBattleVault",
  "sourceName": "contracts/PHBattleVault.sol",
  "abi": [
    {
      "inputs": [
        {
          "internalType": "string",
          "name": "ver_",
          "type": "string"
        }
      ],
      "stateMutability": "nonpayable",
      "type": "constructor"
    },
    {
      "inputs": [],
      "name": "CollectionIsDisable",
      "type": "error"
    },
    {
      "inputs": [],
      "name": "ExperienceOverFlow",
      "type": "error"
    },
    {
      "inputs": [],
      "name": "ExperienceUnderFlow",
      "type": "error"
    },
    {
      "inputs": [],
      "name": "FailInitializingCollectionDisable",
      "type": "error"
    },
    {
      "inputs": [],
      "name": "OperateWithInvalidSignature",
      "type": "error"
    },
    {
      "inputs": [],
      "name": "ReferNonexistentCollection",
      "type": "error"
    },
    {
      "inputs": [],
      "name": "ReferZeroCollection",
      "type": "error"
    },
    {
      "inputs": [],
      "name": "SetOutSizedStatus",
      "type": "error"
    },
    {
      "inputs": [],
      "name": "SignatureExpired",
      "type": "error"
    },
    {
      "anonymous": false,
      "inputs": [
        {
          "indexed": true,
          "internalType": "uint128",
          "name": "collectionId",
          "type": "uint128"
        },
        {
          "indexed": true,
          "internalType": "uint24",
          "name": "chainId",
          "type": "uint24"
        },
        {
          "indexed": true,
          "internalType": "address",
          "name": "addr",
          "type": "address"
        }
      ],
      "name": "AddCollection",
      "type": "event"
    },
    {
      "anonymous": false,
      "inputs": [
        {
          "indexed": true,
          "internalType": "uint128",
          "name": "collectionId",
          "type": "uint128"
        },
        {
          "indexed": true,
          "internalType": "uint128",
          "name": "tokenId",
          "type": "uint128"
        },
        {
          "indexed": false,
          "internalType": "uint64",
          "name": "dExp",
          "type": "uint64"
        }
      ],
      "name": "MintExp",
      "type": "event"
    },
    {
      "anonymous": false,
      "inputs": [
        {
          "indexed": true,
          "internalType": "bytes32",
          "name": "role",
          "type": "bytes32"
        },
        {
          "indexed": true,
          "internalType": "bytes32",
          "name": "previousAdminRole",
          "type": "bytes32"
        },
        {
          "indexed": true,
          "internalType": "bytes32",
          "name": "newAdminRole",
          "type": "bytes32"
        }
      ],
      "name": "RoleAdminChanged",
      "type": "event"
    },
    {
      "anonymous": false,
      "inputs": [
        {
          "indexed": true,
          "internalType": "bytes32",
          "name": "role",
          "type": "bytes32"
        },
        {
          "indexed": true,
          "internalType": "address",
          "name": "account",
          "type": "address"
        },
        {
          "indexed": true,
          "internalType": "address",
          "name": "sender",
          "type": "address"
        }
      ],
      "name": "RoleGranted",
      "type": "event"
    },
    {
      "anonymous": false,
      "inputs": [
        {
          "indexed": true,
          "internalType": "bytes32",
          "name": "role",
          "type": "bytes32"
        },
        {
          "indexed": true,
          "internalType": "address",
          "name": "account",
          "type": "address"
        },
        {
          "indexed": true,
          "internalType": "address",
          "name": "sender",
          "type": "address"
        }
      ],
      "name": "RoleRevoked",
      "type": "event"
    },
    {
      "anonymous": false,
      "inputs": [
        {
          "indexed": true,
          "internalType": "uint128",
          "name": "collectionId",
          "type": "uint128"
        },
        {
          "indexed": true,
          "internalType": "uint128",
          "name": "tokenId",
          "type": "uint128"
        },
        {
          "indexed": false,
          "internalType": "uint64",
          "name": "exp",
          "type": "uint64"
        },
        {
          "indexed": false,
          "internalType": "uint16",
          "name": "lv",
          "type": "uint16"
        },
        {
          "indexed": false,
          "internalType": "uint16[]",
          "name": "slot",
          "type": "uint16[]"
        }
      ],
      "name": "SetStatus",
      "type": "event"
    },
    {
      "inputs": [],
      "name": "DEFAULT_ADMIN_ROLE",
      "outputs": [
        {
          "internalType": "bytes32",
          "name": "",
          "type": "bytes32"
        }
      ],
      "stateMutability": "view",
      "type": "function"
    },
    {
      "inputs": [],
      "name": "PAUSER_ROLE",
      "outputs": [
        {
          "internalType": "bytes32",
          "name": "",
          "type": "bytes32"
        }
      ],
      "stateMutability": "view",
      "type": "function"
    },
    {
      "inputs": [],
      "name": "SIGNER_ROLE",
      "outputs": [
        {
          "internalType": "bytes32",
          "name": "",
          "type": "bytes32"
        }
      ],
      "stateMutability": "view",
      "type": "function"
    },
    {
      "inputs": [
        {
          "internalType": "address",
          "name": "addr",
          "type": "address"
        },
        {
          "internalType": "uint256",
          "name": "blockNumber",
          "type": "uint256"
        },
        {
          "internalType": "uint128",
          "name": "cID",
          "type": "uint128"
        },
        {
          "internalType": "uint128",
          "name": "tID",
          "type": "uint128"
        },
        {
          "components": [
            {
              "internalType": "uint64",
              "name": "exp",
              "type": "uint64"
            },
            {
              "internalType": "uint16",
              "name": "lv",
              "type": "uint16"
            },
            {
              "internalType": "uint16[]",
              "name": "slot",
              "type": "uint16[]"
            }
          ],
          "internalType": "struct IGameVault.Status",
          "name": "data",
          "type": "tuple"
        }
      ],
      "name": "TEST_makeMessage",
      "outputs": [
        {
          "internalType": "string",
          "name": "",
          "type": "string"
        }
      ],
      "stateMutability": "view",
      "type": "function"
    },
    {
      "inputs": [
        {
          "components": [
            {
              "internalType": "uint24",
              "name": "chainId",
              "type": "uint24"
            },
            {
              "internalType": "address",
              "name": "addr",
              "type": "address"
            },
            {
              "internalType": "bool",
              "name": "isSerial",
              "type": "bool"
            },
            {
              "internalType": "uint24",
              "name": "startId",
              "type": "uint24"
            },
            {
              "internalType": "uint24",
              "name": "maxSupply",
              "type": "uint24"
            }
          ],
          "internalType": "struct IGameVault.Collection",
          "name": "data",
          "type": "tuple"
        }
      ],
      "name": "addCollection",
      "outputs": [
        {
          "internalType": "uint256",
          "name": "",
          "type": "uint256"
        }
      ],
      "stateMutability": "nonpayable",
      "type": "function"
    },
    {
      "inputs": [
        {
          "internalType": "uint24",
          "name": "chainId_",
          "type": "uint24"
        },
        {
          "internalType": "address",
          "name": "addr_",
          "type": "address"
        }
      ],
      "name": "addCollection",
      "outputs": [
        {
          "internalType": "uint256",
          "name": "",
          "type": "uint256"
        }
      ],
      "stateMutability": "nonpayable",
      "type": "function"
    },
    {
      "inputs": [
        {
          "internalType": "uint128",
          "name": "cID",
          "type": "uint128"
        },
        {
          "internalType": "bool",
          "name": "isSerial_",
          "type": "bool"
        },
        {
          "internalType": "uint24",
          "name": "startId_",
          "type": "uint24"
        },
        {
          "internalType": "uint24",
          "name": "maxSupply_",
          "type": "uint24"
        }
      ],
      "name": "changeCollectionSupply",
      "outputs": [
        {
          "internalType": "bool",
          "name": "",
          "type": "bool"
        }
      ],
      "stateMutability": "nonpayable",
      "type": "function"
    },
    {
      "inputs": [
        {
          "internalType": "uint128",
          "name": "cID",
          "type": "uint128"
        }
      ],
      "name": "collection",
      "outputs": [
        {
          "components": [
            {
              "internalType": "uint24",
              "name": "chainId",
              "type": "uint24"
            },
            {
              "internalType": "address",
              "name": "addr",
              "type": "address"
            },
            {
              "internalType": "bool",
              "name": "isSerial",
              "type": "bool"
            },
            {
              "internalType": "uint24",
              "name": "startId",
              "type": "uint24"
            },
            {
              "internalType": "uint24",
              "name": "maxSupply",
              "type": "uint24"
            }
          ],
          "internalType": "struct IGameVault.Collection",
          "name": "ret",
          "type": "tuple"
        }
      ],
      "stateMutability": "view",
      "type": "function"
    },
    {
      "inputs": [
        {
          "internalType": "uint128",
          "name": "cID",
          "type": "uint128"
        }
      ],
      "name": "collectionDisable",
      "outputs": [
        {
          "internalType": "bool",
          "name": "",
          "type": "bool"
        }
      ],
      "stateMutability": "view",
      "type": "function"
    },
    {
      "inputs": [
        {
          "internalType": "uint256",
          "name": "blockNumber",
          "type": "uint256"
        },
        {
          "internalType": "uint128",
          "name": "cID",
          "type": "uint128"
        },
        {
          "internalType": "uint128",
          "name": "tID",
          "type": "uint128"
        },
        {
          "internalType": "uint64",
          "name": "dExp",
          "type": "uint64"
        },
        {
          "internalType": "bytes",
          "name": "signature",
          "type": "bytes"
        }
      ],
      "name": "decreaseExp",
      "outputs": [],
      "stateMutability": "nonpayable",
      "type": "function"
    },
    {
      "inputs": [],
      "name": "expireDuration",
      "outputs": [
        {
          "internalType": "uint256",
          "name": "",
          "type": "uint256"
        }
      ],
      "stateMutability": "view",
      "type": "function"
    },
    {
      "inputs": [
        {
          "internalType": "bytes32",
          "name": "role",
          "type": "bytes32"
        }
      ],
      "name": "getRoleAdmin",
      "outputs": [
        {
          "internalType": "bytes32",
          "name": "",
          "type": "bytes32"
        }
      ],
      "stateMutability": "view",
      "type": "function"
    },
    {
      "inputs": [
        {
          "internalType": "bytes32",
          "name": "role",
          "type": "bytes32"
        },
        {
          "internalType": "address",
          "name": "account",
          "type": "address"
        }
      ],
      "name": "grantRole",
      "outputs": [],
      "stateMutability": "nonpayable",
      "type": "function"
    },
    {
      "inputs": [
        {
          "internalType": "bytes32",
          "name": "role",
          "type": "bytes32"
        },
        {
          "internalType": "address",
          "name": "account",
          "type": "address"
        }
      ],
      "name": "hasRole",
      "outputs": [
        {
          "internalType": "bool",
          "name": "",
          "type": "bool"
        }
      ],
      "stateMutability": "view",
      "type": "function"
    },
    {
      "inputs": [
        {
          "internalType": "uint256",
          "name": "blockNumber",
          "type": "uint256"
        },
        {
          "internalType": "uint128",
          "name": "cID",
          "type": "uint128"
        },
        {
          "internalType": "uint128",
          "name": "tID",
          "type": "uint128"
        },
        {
          "internalType": "uint64",
          "name": "dExp",
          "type": "uint64"
        },
        {
          "internalType": "bytes",
          "name": "signature",
          "type": "bytes"
        }
      ],
      "name": "increaseExp",
      "outputs": [],
      "stateMutability": "nonpayable",
      "type": "function"
    },
    {
      "inputs": [
        {
          "internalType": "uint256",
          "name": "blockNumber",
          "type": "uint256"
        },
        {
          "internalType": "uint128",
          "name": "cID",
          "type": "uint128"
        },
        {
          "internalType": "uint128",
          "name": "tID",
          "type": "uint128"
        },
        {
          "internalType": "uint64",
          "name": "dExp",
          "type": "uint64"
        },
        {
          "internalType": "bytes",
          "name": "signature",
          "type": "bytes"
        }
      ],
      "name": "mintExp",
      "outputs": [],
      "stateMutability": "nonpayable",
      "type": "function"
    },
    {
      "inputs": [
        {
          "internalType": "address",
          "name": "",
          "type": "address"
        }
      ],
      "name": "nonce",
      "outputs": [
        {
          "internalType": "uint256",
          "name": "",
          "type": "uint256"
        }
      ],
      "stateMutability": "view",
      "type": "function"
    },
    {
      "inputs": [
        {
          "internalType": "bytes32",
          "name": "role",
          "type": "bytes32"
        },
        {
          "internalType": "address",
          "name": "account",
          "type": "address"
        }
      ],
      "name": "renounceRole",
      "outputs": [],
      "stateMutability": "nonpayable",
      "type": "function"
    },
    {
      "inputs": [
        {
          "internalType": "bytes32",
          "name": "role",
          "type": "bytes32"
        },
        {
          "internalType": "address",
          "name": "account",
          "type": "address"
        }
      ],
      "name": "revokeRole",
      "outputs": [],
      "stateMutability": "nonpayable",
      "type": "function"
    },
    {
      "inputs": [
        {
          "internalType": "uint128",
          "name": "cID",
          "type": "uint128"
        }
      ],
      "name": "setCollectionDisable",
      "outputs": [],
      "stateMutability": "nonpayable",
      "type": "function"
    },
    {
      "inputs": [
        {
          "internalType": "uint128",
          "name": "cID",
          "type": "uint128"
        }
      ],
      "name": "setCollectionEnable",
      "outputs": [],
      "stateMutability": "nonpayable",
      "type": "function"
    },
    {
      "inputs": [
        {
          "internalType": "uint256",
          "name": "newDuration",
          "type": "uint256"
        }
      ],
      "name": "setExpireDuration",
      "outputs": [],
      "stateMutability": "nonpayable",
      "type": "function"
    },
    {
      "inputs": [
        {
          "internalType": "uint256",
          "name": "blockNumber",
          "type": "uint256"
        },
        {
          "internalType": "uint128",
          "name": "cID",
          "type": "uint128"
        },
        {
          "internalType": "uint128",
          "name": "tID",
          "type": "uint128"
        },
        {
          "components": [
            {
              "internalType": "uint64",
              "name": "exp",
              "type": "uint64"
            },
            {
              "internalType": "uint16",
              "name": "lv",
              "type": "uint16"
            },
            {
              "internalType": "uint16[]",
              "name": "slot",
              "type": "uint16[]"
            }
          ],
          "internalType": "struct IGameVault.Status",
          "name": "data",
          "type": "tuple"
        },
        {
          "internalType": "bytes",
          "name": "signature",
          "type": "bytes"
        }
      ],
      "name": "setStatus",
      "outputs": [],
      "stateMutability": "nonpayable",
      "type": "function"
    },
    {
      "inputs": [
        {
          "internalType": "uint128",
          "name": "cID",
          "type": "uint128"
        },
        {
          "internalType": "uint128",
          "name": "tID",
          "type": "uint128"
        }
      ],
      "name": "status",
      "outputs": [
        {
          "components": [
            {
              "internalType": "uint64",
              "name": "exp",
              "type": "uint64"
            },
            {
              "internalType": "uint16",
              "name": "lv",
              "type": "uint16"
            },
            {
              "internalType": "uint16[]",
              "name": "slot",
              "type": "uint16[]"
            }
          ],
          "internalType": "struct IGameVault.Status",
          "name": "",
          "type": "tuple"
        }
      ],
      "stateMutability": "view",
      "type": "function"
    },
    {
      "inputs": [
        {
          "internalType": "bytes4",
          "name": "interfaceId",
          "type": "bytes4"
        }
      ],
      "name": "supportsInterface",
      "outputs": [
        {
          "internalType": "bool",
          "name": "",
          "type": "bool"
        }
      ],
      "stateMutability": "view",
      "type": "function"
    },
    {
      "inputs": [],
      "name": "totalCollection",
      "outputs": [
        {
          "internalType": "uint256",
          "name": "",
          "type": "uint256"
        }
      ],
      "stateMutability": "view",
      "type": "function"
    },
    {
      "inputs": [],
      "name": "version",
      "outputs": [
        {
          "internalType": "string",
          "name": "",
          "type": "string"
        }
      ],
      "stateMutability": "view",
      "type": "function"
    }
  ],
  "bytecode": "0x60806040523480156200001157600080fd5b5060405162004f0e38038062004f0e83398181016040528101906200003791906200035f565b808060019080519060200190620000509291906200023d565b5060916007819055506200006e6000801b33620000da60201b60201c565b620000a07f65d7a28e3265b37a6474929f336521b332c1681b933f6cb9f3376673440d862a33620000da60201b60201c565b620000d27fe2f4eaae4a9751e85a3e4a7b9587827a877f29914755229b07a7b2da98285f7033620000da60201b60201c565b505062000514565b620000ec8282620001cb60201b60201c565b620001c757600160008084815260200190815260200160002060000160008373ffffffffffffffffffffffffffffffffffffffff1673ffffffffffffffffffffffffffffffffffffffff16815260200190815260200160002060006101000a81548160ff0219169083151502179055506200016c6200023560201b60201c565b73ffffffffffffffffffffffffffffffffffffffff168173ffffffffffffffffffffffffffffffffffffffff16837f2f8788117e7eff1d82e926ec794901d17c78024a50270940304540a733656f0d60405160405180910390a45b5050565b600080600084815260200190815260200160002060000160008373ffffffffffffffffffffffffffffffffffffffff1673ffffffffffffffffffffffffffffffffffffffff16815260200190815260200160002060009054906101000a900460ff16905092915050565b600033905090565b8280546200024b9062000439565b90600052602060002090601f0160209004810192826200026f5760008555620002bb565b82601f106200028a57805160ff1916838001178555620002bb565b82800160010185558215620002bb579182015b82811115620002ba5782518255916020019190600101906200029d565b5b509050620002ca9190620002ce565b5090565b5b80821115620002e9576000816000905550600101620002cf565b5090565b600062000304620002fe84620003cd565b620003a4565b9050828152602081018484840111156200031d57600080fd5b6200032a84828562000403565b509392505050565b600082601f8301126200034457600080fd5b815162000356848260208601620002ed565b91505092915050565b6000602082840312156200037257600080fd5b600082015167ffffffffffffffff8111156200038d57600080fd5b6200039b8482850162000332565b91505092915050565b6000620003b0620003c3565b9050620003be82826200046f565b919050565b6000604051905090565b600067ffffffffffffffff821115620003eb57620003ea620004d4565b5b620003f68262000503565b9050602081019050919050565b60005b838110156200042357808201518184015260208101905062000406565b8381111562000433576000848401525b50505050565b600060028204905060018216806200045257607f821691505b60208210811415620004695762000468620004a5565b5b50919050565b6200047a8262000503565b810181811067ffffffffffffffff821117156200049c576200049b620004d4565b5b80604052505050565b7f4e487b7100000000000000000000000000000000000000000000000000000000600052602260045260246000fd5b7f4e487b7100000000000000000000000000000000000000000000000000000000600052604160045260246000fd5b6000601f19601f8301169050919050565b6149ea80620005246000396000f3fe608060405234801561001057600080fd5b50600436106101a95760003560e01c8063882d7de6116100f9578063cacaf22e11610097578063efbaa86311610071578063efbaa863146104dc578063f17aec581461050c578063f8b596a91461053c578063f96f6d541461055a576101a9565b8063cacaf22e14610472578063d547741f146104a2578063e63ab1e9146104be576101a9565b8063a217fddf116100d3578063a217fddf146103ec578063bc8be0271461040a578063c46467f514610426578063c93cbda214610456576101a9565b8063882d7de61461038257806391d148541461039e578063a1ebf35d146103ce576101a9565b80634a340d671161016657806370ae92d21161014057806370ae92d2146102ea57806372da54d51461031a5780637929f777146103365780637b58db8f14610366576101a9565b80634a340d671461028057806354fd4d50146102b057806368661baa146102ce576101a9565b806301ffc9a7146101ae5780631c445845146101de578063248a9ca3146101fa5780632f2ff15d1461022a57806336568abe1461024657806342b4224014610262575b600080fd5b6101c860048036038101906101c391906131d8565b61058a565b6040516101d59190613b0f565b60405180910390f35b6101f860048036038101906101f39190613357565b610604565b005b610214600480360381019061020f9190613173565b610657565b6040516102219190613b2a565b60405180910390f35b610244600480360381019061023f919061319c565b610676565b005b610260600480360381019061025b919061319c565b610697565b005b61026a61071a565b6040516102779190613cfc565b60405180910390f35b61029a6004803603810190610295919061322a565b610752565b6040516102a79190613cbf565b60405180910390f35b6102b861087f565b6040516102c59190613b8a565b60405180910390f35b6102e860048036038101906102e391906133fe565b61090d565b005b61030460048036038101906102ff91906130bb565b610925565b6040516103119190613cfc565b60405180910390f35b610334600480360381019061032f91906133fe565b61093d565b005b610350600480360381019061034b91906132b6565b610955565b60405161035d9190613cda565b60405180910390f35b610380600480360381019061037b91906133fe565b610979565b005b61039c6004803603810190610397919061322a565b6109ee565b005b6103b860048036038101906103b3919061319c565b610a14565b6040516103c59190613b0f565b60405180910390f35b6103d6610a7e565b6040516103e39190613b2a565b60405180910390f35b6103f4610aa2565b6040516104019190613b2a565b60405180910390f35b610424600480360381019061041f919061332e565b610aa9565b005b610440600480360381019061043b919061322a565b610ac1565b60405161044d9190613b0f565b60405180910390f35b610470600480360381019061046b919061322a565b610b92565b005b61048c60048036038101906104879190613201565b610bb8565b6040516104999190613cfc565b60405180910390f35b6104bc60048036038101906104b7919061319c565b610bf0565b005b6104c6610c11565b6040516104d39190613b2a565b60405180910390f35b6104f660048036038101906104f191906130e4565b610c35565b6040516105039190613b8a565b60405180910390f35b610526600480360381019061052191906132f2565b610c4f565b6040516105339190613cfc565b60405180910390f35b610544610c76565b6040516105519190613cfc565b60405180910390f35b610574600480360381019061056f9190613253565b610c80565b6040516105819190613b0f565b60405180910390f35b60007f7965db0b000000000000000000000000000000000000000000000000000000007bffffffffffffffffffffffffffffffffffffffffffffffffffffffff1916827bffffffffffffffffffffffffffffffffffffffffffffffffffffffff191614806105fd57506105fc82610cb0565b5b9050919050565b61060d82610d1a565b5061061784610d25565b5061062e6106283387878787610d70565b82610f45565b5061063885610fba565b5061064233611082565b61064f84848460016110da565b505050505050565b6000806000838152602001908152602001600020600101549050919050565b61067f82610657565b6106888161118a565b610692838361119e565b505050565b61069f61127e565b73ffffffffffffffffffffffffffffffffffffffff168173ffffffffffffffffffffffffffffffffffffffff161461070c576040517f08c379a000000000000000000000000000000000000000000000000000000000815260040161070390613c9f565b60405180910390fd5b6107168282611286565b5050565b6000600660009054906101000a90046fffffffffffffffffffffffffffffffff166fffffffffffffffffffffffffffffffff16905090565b61075a612d7b565b61076382611367565b50600060026000846fffffffffffffffffffffffffffffffff16815260200190815260200160002054905062ffffff8116826000019062ffffff16908162ffffff16815250506107cc73ffffffffffffffffffffffffffffffffffffffff601883901c1661143b565b826020019073ffffffffffffffffffffffffffffffffffffffff16908173ffffffffffffffffffffffffffffffffffffffff1681525050600060ff60b883901c16141561082957600082604001901515908115158152505061083b565b60018260400190151590811515815250505b62ffffff60d082901c16826060019062ffffff16908162ffffff168152505062ffffff60e982901c16826080019062ffffff16908162ffffff168152505050919050565b6001805461088c90614495565b80601f01602080910402602001604051908101604052809291908181526020018280546108b890614495565b80156109055780601f106108da57610100808354040283529160200191610905565b820191906000526020600020905b8154815290600101906020018083116108e857829003601f168201915b505050505081565b61091e858585856001866001611445565b5050505050565b60046020528060005260406000206000915090505481565b61094e858585856000866001611445565b5050505050565b61095d612dd1565b61096683611367565b5061097183836115cc565b905092915050565b61098a858585856001866000611445565b826fffffffffffffffffffffffffffffffff16846fffffffffffffffffffffffffffffffff167f4395d4d0d48410f2b59c321710d0c2f6ee60a6b402082e169e912eaf61e84d39846040516109df9190613d17565b60405180910390a35050505050565b6000801b6109fb8161118a565b610a0482611367565b50610a1082600161174d565b5050565b600080600084815260200190815260200160002060000160008373ffffffffffffffffffffffffffffffffffffffff1673ffffffffffffffffffffffffffffffffffffffff16815260200190815260200160002060009054906101000a900460ff16905092915050565b7fe2f4eaae4a9751e85a3e4a7b9587827a877f29914755229b07a7b2da98285f7081565b6000801b81565b6000801b610ab68161118a565b816007819055505050565b6000610acc82611367565b506000600183610adc9190614257565b9050600061010082610aee9190613f74565b6fffffffffffffffffffffffffffffffff169050600060058281548110610b3e577f4e487b7100000000000000000000000000000000000000000000000000000000600052603260045260246000fd5b906000526020600020015490506000600161010085610b5d919061454b565b6fffffffffffffffffffffffffffffffff1683901c161415610b855760009350505050610b8d565b600193505050505b919050565b6000801b610b9f8161118a565b610ba882611367565b50610bb482600061174d565b5050565b60008060001b610bc78161118a565b610be8836000015184602001518560400151866060015187608001516118f0565b915050919050565b610bf982610657565b610c028161118a565b610c0c8383611286565b505050565b7f65d7a28e3265b37a6474929f336521b332c1681b933f6cb9f3376673440d862a81565b6060610c448686868686610d70565b905095945050505050565b60008060001b610c5e8161118a565b610c6d848460008060006118f0565b91505092915050565b6000600754905090565b60008060001b610c8f8161118a565b610c9886611367565b50610ca586868686611a76565b915050949350505050565b60007f01ffc9a7000000000000000000000000000000000000000000000000000000007bffffffffffffffffffffffffffffffffffffffffffffffffffffffff1916827bffffffffffffffffffffffffffffffffffffffffffffffffffffffff1916149050919050565b600060019050919050565b6000610d3082610ac1565b15610d67576040517fa2a7442c00000000000000000000000000000000000000000000000000000000815260040160405180910390fd5b60019050919050565b60606000610d938773ffffffffffffffffffffffffffffffffffffffff16611b12565b610ddb600460008a73ffffffffffffffffffffffffffffffffffffffff1673ffffffffffffffffffffffffffffffffffffffff16815260200190815260200160002054611d47565b610de488611d47565b610dff886fffffffffffffffffffffffffffffffff16611d47565b610e1a886fffffffffffffffffffffffffffffffff16611d47565b610e31886000015167ffffffffffffffff16611d47565b610e42896020015161ffff16611d47565b604051602001610e589796959493929190613a23565b60405160208183030381529060405290506000836040015151905060005b600b811015610f365781811015610f005782610ed986604001518381518110610ec8577f4e487b7100000000000000000000000000000000000000000000000000000000600052603260045260246000fd5b602002602001015161ffff16611d47565b604051602001610eea9291906138fa565b6040516020818303038152906040529250610f23565b82604051602001610f119190613929565b60405160208183030381529060405292505b8080610f2e906144f8565b915050610e76565b50819250505095945050505050565b6000610f7a7fe2f4eaae4a9751e85a3e4a7b9587827a877f29914755229b07a7b2da98285f70610f758585611ef4565b610a14565b610fb0576040517ffe8352d500000000000000000000000000000000000000000000000000000000815260040160405180910390fd5b6001905092915050565b60006110326040518060400160405280600b81526020017f636861696e207374616d70000000000000000000000000000000000000000000815250436040518060400160405280600a81526020017f74657374207374616d700000000000000000000000000000000000000000000081525085611f2e565b43600754836110419190613ea9565b1015611079576040517f0819bdcd00000000000000000000000000000000000000000000000000000000815260040160405180910390fd5b60019050919050565b600460008273ffffffffffffffffffffffffffffffffffffffff1673ffffffffffffffffffffffffffffffffffffffff16815260200190815260200160002060008154809291906110d2906144f8565b919050555050565b6000806110e684611fd0565b905080600360006110f789896120c8565b815260200190815260200160002081905550821561117d57846fffffffffffffffffffffffffffffffff16866fffffffffffffffffffffffffffffffff167fae6179dea0e80114f95c2a62ada8e185577a1092b6513be26dd5e7da5396c4f886600001518760200151886040015160405161117493929190613d32565b60405180910390a35b6001915050949350505050565b61119b8161119661127e565b6120fd565b50565b6111a88282610a14565b61127a57600160008084815260200190815260200160002060000160008373ffffffffffffffffffffffffffffffffffffffff1673ffffffffffffffffffffffffffffffffffffffff16815260200190815260200160002060006101000a81548160ff02191690831515021790555061121f61127e565b73ffffffffffffffffffffffffffffffffffffffff168173ffffffffffffffffffffffffffffffffffffffff16837f2f8788117e7eff1d82e926ec794901d17c78024a50270940304540a733656f0d60405160405180910390a45b5050565b600033905090565b6112908282610a14565b1561136357600080600084815260200190815260200160002060000160008373ffffffffffffffffffffffffffffffffffffffff1673ffffffffffffffffffffffffffffffffffffffff16815260200190815260200160002060006101000a81548160ff02191690831515021790555061130861127e565b73ffffffffffffffffffffffffffffffffffffffff168173ffffffffffffffffffffffffffffffffffffffff16837ff6391f5c32d9c69d2a47ea670b442974b53935d1edc7fd64eb21e047a839171b60405160405180910390a45b5050565b6000600660009054906101000a90046fffffffffffffffffffffffffffffffff166fffffffffffffffffffffffffffffffff16826fffffffffffffffffffffffffffffffff1611156113e5576040517f0f4fe90200000000000000000000000000000000000000000000000000000000815260040160405180910390fd5b6000826fffffffffffffffffffffffffffffffff161415611432576040517f0a10ff0300000000000000000000000000000000000000000000000000000000815260040160405180910390fd5b60019050919050565b6000819050919050565b61144e86611367565b50600061145b87876115cc565b905083156114f45767ffffffffffffffff801685826000015161147e9190613eff565b67ffffffffffffffff1611156114c0576040517fd43ea1ab00000000000000000000000000000000000000000000000000000000815260040160405180910390fd5b8481600001516114d09190613eff565b816000019067ffffffffffffffff16908167ffffffffffffffff1681525050611576565b8467ffffffffffffffff16816000015167ffffffffffffffff161015611546576040517fd6bea61300000000000000000000000000000000000000000000000000000000815260040160405180910390fd5b84816000015161155691906142bf565b816000019067ffffffffffffffff16908167ffffffffffffffff16815250505b61157f81610d1a565b5061158987610d25565b506115a161159b338a8a8a8a8a61219a565b84610f45565b506115ab88610fba565b506115b533611082565b6115c1878783856110da565b505050505050505050565b6115d4612dd1565b6000600360006115e486866120c8565b815260200190815260200160002054905067ffffffffffffffff8116826000019067ffffffffffffffff16908167ffffffffffffffff168152505061ffff604082901c16826020019061ffff16908161ffff1681525050600b67ffffffffffffffff81111561167c577f4e487b7100000000000000000000000000000000000000000000000000000000600052604160045260246000fd5b6040519080825280602002602001820160405280156116aa5781602001602082028036833780820191505090505b50826040018190525060005b600b8110156117455761ffff6010826116cf91906141c2565b60506116db9190613ea9565b83901c168360400151828151811061171c577f4e487b7100000000000000000000000000000000000000000000000000000000600052603260045260246000fd5b602002602001019061ffff16908161ffff1681525050808061173d906144f8565b9150506116b6565b505092915050565b6000600660009054906101000a90046fffffffffffffffffffffffffffffffff169050826fffffffffffffffffffffffffffffffff16816fffffffffffffffffffffffffffffffff1611156117a0578290505b80806117ab90614441565b9150506000610100826117be9190613f74565b6fffffffffffffffffffffffffffffffff1690506000610100836117e2919061454b565b6fffffffffffffffffffffffffffffffff166001901b199050600060058381548110611837577f4e487b7100000000000000000000000000000000000000000000000000000000600052603260045260246000fd5b90600052602060002001549050841561189c57818119161960058481548110611889577f4e487b7100000000000000000000000000000000000000000000000000000000600052603260045260246000fd5b90600052602060002001819055506118e8565b818116600584815481106118d9577f4e487b7100000000000000000000000000000000000000000000000000000000600052603260045260246000fd5b90600052602060002001819055505b505050505050565b6000806001600660009054906101000a90046fffffffffffffffffffffffffffffffff1661191e9190613e63565b6fffffffffffffffffffffffffffffffff169050600060186119558873ffffffffffffffffffffffffffffffffffffffff1661230b565b901b8862ffffff1617905085156119875760b86001901b60d08662ffffff16901b60e98662ffffff16901b8317171790505b6001600660008282829054906101000a90046fffffffffffffffffffffffffffffffff166119b59190613e63565b92506101000a8154816fffffffffffffffffffffffffffffffff02191690836fffffffffffffffffffffffffffffffff160217905550806002600084815260200190815260200160002081905550611a0c8261232b565b8673ffffffffffffffffffffffffffffffffffffffff168862ffffff16836fffffffffffffffffffffffffffffffff167fca9c9d7d70756c9ad32c39e8e425d745cdd3a18e8c1e778215f5e1511f24112360405160405180910390a4819250505095945050505050565b600080600160b86001901b611a8b919061428b565b60026000886fffffffffffffffffffffffffffffffff168152602001908152602001600020541690508415611adb5760b86001901b60d08562ffffff16901b60e98562ffffff16901b8317171790505b8060026000886fffffffffffffffffffffffffffffffff168152602001908152602001600020819055506001915050949350505050565b60606000602867ffffffffffffffff811115611b57577f4e487b7100000000000000000000000000000000000000000000000000000000600052604160045260246000fd5b6040519080825280601f01601f191660200182016040528015611b895781602001600182028036833780820191505090505b50905060005b6014811015611d3d576000816013611ba7919061428b565b6008611bb391906141c2565b6002611bbf919061405a565b8573ffffffffffffffffffffffffffffffffffffffff16611be09190613fa5565b60f81b9050600060108260f81c611bf79190613fd6565b60f81b905060008160f81c6010611c0e919061421c565b8360f81c611c1c91906142f3565b60f81b9050611c2a8261246c565b85856002611c3891906141c2565b81518110611c6f577f4e487b7100000000000000000000000000000000000000000000000000000000600052603260045260246000fd5b60200101907effffffffffffffffffffffffffffffffffffffffffffffffffffffffffffff1916908160001a905350611ca78161246c565b856001866002611cb791906141c2565b611cc19190613ea9565b81518110611cf8577f4e487b7100000000000000000000000000000000000000000000000000000000600052603260045260246000fd5b60200101907effffffffffffffffffffffffffffffffffffffffffffffffffffffffffffff1916908160001a9053505050508080611d35906144f8565b915050611b8f565b5080915050919050565b60606000821415611d8f576040518060400160405280600181526020017f30000000000000000000000000000000000000000000000000000000000000008152509050611eef565b600082905060005b60008214611dc1578080611daa906144f8565b915050600a82611dba9190613fa5565b9150611d97565b60008167ffffffffffffffff811115611e03577f4e487b7100000000000000000000000000000000000000000000000000000000600052604160045260246000fd5b6040519080825280601f01601f191660200182016040528015611e355781602001600182028036833780820191505090505b5090505b60008514611ee857600182611e4e919061428b565b9150600a85611e5d919061457c565b6030611e699190613ea9565b60f81b818381518110611ea5577f4e487b7100000000000000000000000000000000000000000000000000000000600052603260045260246000fd5b60200101907effffffffffffffffffffffffffffffffffffffffffffffffffffffffffffff1916908160001a905350600a85611ee19190613fa5565b9450611e39565b8093505050505b919050565b6000611f2683604051602001611f0a91906138e3565b60405160208183030381529060405280519060200120836124b2565b905092915050565b611fca84848484604051602401611f489493929190613bac565b6040516020818303038152906040527fa0c4b225000000000000000000000000000000000000000000000000000000007bffffffffffffffffffffffffffffffffffffffffffffffffffffffff19166020820180517bffffffffffffffffffffffffffffffffffffffffffffffffffffffff83818316178352505050506124f1565b50505050565b6000808260400151519050600b811115612016576040517fc440f34b00000000000000000000000000000000000000000000000000000000815260040160405180910390fd5b60006040846020015161ffff16901b846000015167ffffffffffffffff1617905060005b828110156120bd5780601061204f91906141c2565b605061205b9190613ea9565b85604001518281518110612098577f4e487b7100000000000000000000000000000000000000000000000000000000600052603260045260246000fd5b602002602001015161ffff16901b8217915080806120b5906144f8565b91505061203a565b508092505050919050565b60006080826fffffffffffffffffffffffffffffffff16901b836fffffffffffffffffffffffffffffffff1617905092915050565b6121078282610a14565b6121965761212c8173ffffffffffffffffffffffffffffffffffffffff16601461251a565b61213a8360001c602061251a565b60405160200161214b929190613ad5565b6040516020818303038152906040526040517f08c379a000000000000000000000000000000000000000000000000000000000815260040161218d9190613b8a565b60405180910390fd5b5050565b60608082156121e0576040518060400160405280600181526020017f2b000000000000000000000000000000000000000000000000000000000000008152509050612219565b6040518060400160405280600181526020017f2d0000000000000000000000000000000000000000000000000000000000000081525090505b600061223a8973ffffffffffffffffffffffffffffffffffffffff16611b12565b612282600460008c73ffffffffffffffffffffffffffffffffffffffff1673ffffffffffffffffffffffffffffffffffffffff16815260200190815260200160002054611d47565b61228b8a611d47565b6122a68a6fffffffffffffffffffffffffffffffff16611d47565b6122c18a6fffffffffffffffffffffffffffffffff16611d47565b866122d58b67ffffffffffffffff16611d47565b6040516020016122eb979695949392919061397c565b604051602081830303815290604052905080925050509695505050505050565b60008173ffffffffffffffffffffffffffffffffffffffff169050919050565b6000600660009054906101000a90046fffffffffffffffffffffffffffffffff16905060006005805490509050816fffffffffffffffffffffffffffffffff16836fffffffffffffffffffffffffffffffff161115612388578291505b806101006123969190614178565b6fffffffffffffffffffffffffffffffff16826fffffffffffffffffffffffffffffffff161115612467576001816123ce9190613e63565b6101006123db9190614178565b6fffffffffffffffffffffffffffffffff16826fffffffffffffffffffffffffffffffff161161243457600560009080600181540180825580915050600190039060005260206000200160009091909190915055612466565b6040517fdcb25e5800000000000000000000000000000000000000000000000000000000815260040160405180910390fd5b5b505050565b6000600a8260f81c60ff1610156124975760308260f81c61248d9190613f3d565b60f81b90506124ad565b60578260f81c6124a79190613f3d565b60f81b90505b919050565b600080836040516020016124c69190613956565b6040516020818303038152906040528051906020012090506124e88184612814565b91505092915050565b60008151905060006a636f6e736f6c652e6c6f679050602083016000808483855afa5050505050565b60606000600283600261252d91906141c2565b6125379190613ea9565b67ffffffffffffffff811115612576577f4e487b7100000000000000000000000000000000000000000000000000000000600052604160045260246000fd5b6040519080825280601f01601f1916602001820160405280156125a85781602001600182028036833780820191505090505b5090507f300000000000000000000000000000000000000000000000000000000000000081600081518110612606577f4e487b7100000000000000000000000000000000000000000000000000000000600052603260045260246000fd5b60200101907effffffffffffffffffffffffffffffffffffffffffffffffffffffffffffff1916908160001a9053507f780000000000000000000000000000000000000000000000000000000000000081600181518110612690577f4e487b7100000000000000000000000000000000000000000000000000000000600052603260045260246000fd5b60200101907effffffffffffffffffffffffffffffffffffffffffffffffffffffffffffff1916908160001a905350600060018460026126d091906141c2565b6126da9190613ea9565b90505b60018111156127c6577f3031323334353637383961626364656600000000000000000000000000000000600f861660108110612742577f4e487b7100000000000000000000000000000000000000000000000000000000600052603260045260246000fd5b1a60f81b82828151811061277f577f4e487b7100000000000000000000000000000000000000000000000000000000600052603260045260246000fd5b60200101907effffffffffffffffffffffffffffffffffffffffffffffffffffffffffffff1916908160001a905350600485901c9450806127bf9061446b565b90506126dd565b506000841461280a576040517f08c379a000000000000000000000000000000000000000000000000000000000815260040161280190613c1f565b60405180910390fd5b8091505092915050565b6000806000612823858561283b565b91509150612830816128be565b819250505092915050565b60008060418351141561287d5760008060006020860151925060408601519150606086015160001a905061287187828585612c0f565b945094505050506128b7565b6040835114156128ae5760008060208501519150604085015190506128a3868383612d1c565b9350935050506128b7565b60006002915091505b9250929050565b600060048111156128f8577f4e487b7100000000000000000000000000000000000000000000000000000000600052602160045260246000fd5b816004811115612931577f4e487b7100000000000000000000000000000000000000000000000000000000600052602160045260246000fd5b141561293c57612c0c565b60016004811115612976577f4e487b7100000000000000000000000000000000000000000000000000000000600052602160045260246000fd5b8160048111156129af577f4e487b7100000000000000000000000000000000000000000000000000000000600052602160045260246000fd5b14156129f0576040517f08c379a00000000000000000000000000000000000000000000000000000000081526004016129e790613bff565b60405180910390fd5b60026004811115612a2a577f4e487b7100000000000000000000000000000000000000000000000000000000600052602160045260246000fd5b816004811115612a63577f4e487b7100000000000000000000000000000000000000000000000000000000600052602160045260246000fd5b1415612aa4576040517f08c379a0000000000000000000000000000000000000000000000000000000008152600401612a9b90613c3f565b60405180910390fd5b60036004811115612ade577f4e487b7100000000000000000000000000000000000000000000000000000000600052602160045260246000fd5b816004811115612b17577f4e487b7100000000000000000000000000000000000000000000000000000000600052602160045260246000fd5b1415612b58576040517f08c379a0000000000000000000000000000000000000000000000000000000008152600401612b4f90613c5f565b60405180910390fd5b600480811115612b91577f4e487b7100000000000000000000000000000000000000000000000000000000600052602160045260246000fd5b816004811115612bca577f4e487b7100000000000000000000000000000000000000000000000000000000600052602160045260246000fd5b1415612c0b576040517f08c379a0000000000000000000000000000000000000000000000000000000008152600401612c0290613c7f565b60405180910390fd5b5b50565b6000807f7fffffffffffffffffffffffffffffff5d576e7357a4501ddfe92f46681b20a08360001c1115612c4a576000600391509150612d13565b601b8560ff1614158015612c625750601c8560ff1614155b15612c74576000600491509150612d13565b600060018787878760405160008152602001604052604051612c999493929190613b45565b6020604051602081039080840390855afa158015612cbb573d6000803e3d6000fd5b505050602060405103519050600073ffffffffffffffffffffffffffffffffffffffff168173ffffffffffffffffffffffffffffffffffffffff161415612d0a57600060019250925050612d13565b80600092509250505b94509492505050565b60008060007f7fffffffffffffffffffffffffffffffffffffffffffffffffffffffffffffff60001b841690506000601b60ff8660001c901c612d5f9190613ea9565b9050612d6d87828885612c0f565b935093505050935093915050565b6040518060a00160405280600062ffffff168152602001600073ffffffffffffffffffffffffffffffffffffffff168152602001600015158152602001600062ffffff168152602001600062ffffff1681525090565b6040518060600160405280600067ffffffffffffffff168152602001600061ffff168152602001606081525090565b6000612e13612e0e84613d95565b613d70565b90508083825260208201905082856020860282011115612e3257600080fd5b60005b85811015612e625781612e488882613067565b845260208401935060208301925050600181019050612e35565b5050509392505050565b6000612e7f612e7a84613dc1565b613d70565b905082815260208101848484011115612e9757600080fd5b612ea28482856143ff565b509392505050565b600081359050612eb9816148e5565b92915050565b600082601f830112612ed057600080fd5b8135612ee0848260208601612e00565b91505092915050565b600081359050612ef8816148fc565b92915050565b600081359050612f0d81614913565b92915050565b600081359050612f228161492a565b92915050565b600082601f830112612f3957600080fd5b8135612f49848260208601612e6c565b91505092915050565b600060a08284031215612f6457600080fd5b612f6e60a0613d70565b90506000612f7e8482850161307c565b6000830152506020612f9284828501612eaa565b6020830152506040612fa684828501612ee9565b6040830152506060612fba8482850161307c565b6060830152506080612fce8482850161307c565b60808301525092915050565b600060608284031215612fec57600080fd5b612ff66060613d70565b90506000613006848285016130a6565b600083015250602061301a84828501613067565b602083015250604082013567ffffffffffffffff81111561303a57600080fd5b61304684828501612ebf565b60408301525092915050565b60008135905061306181614941565b92915050565b60008135905061307681614958565b92915050565b60008135905061308b8161496f565b92915050565b6000813590506130a081614986565b92915050565b6000813590506130b58161499d565b92915050565b6000602082840312156130cd57600080fd5b60006130db84828501612eaa565b91505092915050565b600080600080600060a086880312156130fc57600080fd5b600061310a88828901612eaa565b955050602061311b88828901613091565b945050604061312c88828901613052565b935050606061313d88828901613052565b925050608086013567ffffffffffffffff81111561315a57600080fd5b61316688828901612fda565b9150509295509295909350565b60006020828403121561318557600080fd5b600061319384828501612efe565b91505092915050565b600080604083850312156131af57600080fd5b60006131bd85828601612efe565b92505060206131ce85828601612eaa565b9150509250929050565b6000602082840312156131ea57600080fd5b60006131f884828501612f13565b91505092915050565b600060a0828403121561321357600080fd5b600061322184828501612f52565b91505092915050565b60006020828403121561323c57600080fd5b600061324a84828501613052565b91505092915050565b6000806000806080858703121561326957600080fd5b600061327787828801613052565b945050602061328887828801612ee9565b93505060406132998782880161307c565b92505060606132aa8782880161307c565b91505092959194509250565b600080604083850312156132c957600080fd5b60006132d785828601613052565b92505060206132e885828601613052565b9150509250929050565b6000806040838503121561330557600080fd5b60006133138582860161307c565b925050602061332485828601612eaa565b9150509250929050565b60006020828403121561334057600080fd5b600061334e84828501613091565b91505092915050565b600080600080600060a0868803121561336f57600080fd5b600061337d88828901613091565b955050602061338e88828901613052565b945050604061339f88828901613052565b935050606086013567ffffffffffffffff8111156133bc57600080fd5b6133c888828901612fda565b925050608086013567ffffffffffffffff8111156133e557600080fd5b6133f188828901612f28565b9150509295509295909350565b600080600080600060a0868803121561341657600080fd5b600061342488828901613091565b955050602061343588828901613052565b945050604061344688828901613052565b9350506060613457888289016130a6565b925050608086013567ffffffffffffffff81111561347457600080fd5b61348088828901612f28565b9150509295509295909350565b6000613499838361387a565b60208301905092915050565b6134ae81614327565b82525050565b60006134bf82613e02565b6134c98185613e25565b93506134d483613df2565b8060005b838110156135055781516134ec888261348d565b97506134f783613e18565b9250506001810190506134d8565b5085935050505092915050565b600061351d82613e02565b6135278185613e36565b935061353283613df2565b8060005b8381101561356357815161354a888261348d565b975061355583613e18565b925050600181019050613536565b5085935050505092915050565b61357981614339565b82525050565b61358881614339565b82525050565b61359781614345565b82525050565b6135ae6135a982614345565b614541565b82525050565b60006135bf82613e0d565b6135c98185613e47565b93506135d981856020860161440e565b6135e281614669565b840191505092915050565b60006135f882613e0d565b6136028185613e58565b935061361281856020860161440e565b80840191505092915050565b600061362b601883613e47565b915061363682614687565b602082019050919050565b600061364e600183613e58565b9150613659826146b0565b600182019050919050565b6000613671602083613e47565b915061367c826146d9565b602082019050919050565b6000613694601f83613e47565b915061369f82614702565b602082019050919050565b60006136b7601c83613e58565b91506136c28261472b565b601c82019050919050565b60006136da600283613e58565b91506136e582614754565b600282019050919050565b60006136fd602283613e47565b91506137088261477d565b604082019050919050565b6000613720602283613e47565b915061372b826147cc565b604082019050919050565b6000613743601783613e58565b915061374e8261481b565b601782019050919050565b6000613766600183613e58565b915061377182614844565b600182019050919050565b6000613789601183613e58565b91506137948261486d565b601182019050919050565b60006137ac602f83613e47565b91506137b782614896565b604082019050919050565b60a0820160008201516137d86000850182613898565b5060208201516137eb60208501826134a5565b5060408201516137fe6040850182613570565b5060608201516138116060850182613898565b5060808201516138246080850182613898565b50505050565b600060608301600083015161384260008601826138b6565b506020830151613855602086018261387a565b506040830151848203604086015261386d82826134b4565b9150508091505092915050565b61388381614397565b82525050565b61389281614397565b82525050565b6138a1816143c5565b82525050565b6138b0816143d4565b82525050565b6138bf816143de565b82525050565b6138ce816143de565b82525050565b6138dd816143f2565b82525050565b60006138ef82846135ed565b915081905092915050565b600061390682856135ed565b915061391182613759565b915061391d82846135ed565b91508190509392505050565b600061393582846135ed565b915061394082613759565b915061394b82613641565b915081905092915050565b6000613961826136aa565b915061396d828461359d565b60208201915081905092915050565b6000613987826136cd565b9150613993828a6135ed565b915061399e82613759565b91506139aa82896135ed565b91506139b582613759565b91506139c182886135ed565b91506139cc82613759565b91506139d882876135ed565b91506139e382613759565b91506139ef82866135ed565b91506139fa82613759565b9150613a0682856135ed565b9150613a1282846135ed565b915081905098975050505050505050565b6000613a2e826136cd565b9150613a3a828a6135ed565b9150613a4582613759565b9150613a5182896135ed565b9150613a5c82613759565b9150613a6882886135ed565b9150613a7382613759565b9150613a7f82876135ed565b9150613a8a82613759565b9150613a9682866135ed565b9150613aa182613759565b9150613aad82856135ed565b9150613ab882613759565b9150613ac482846135ed565b915081905098975050505050505050565b6000613ae082613736565b9150613aec82856135ed565b9150613af78261377c565b9150613b0382846135ed565b91508190509392505050565b6000602082019050613b24600083018461357f565b92915050565b6000602082019050613b3f600083018461358e565b92915050565b6000608082019050613b5a600083018761358e565b613b6760208301866138d4565b613b74604083018561358e565b613b81606083018461358e565b95945050505050565b60006020820190508181036000830152613ba481846135b4565b905092915050565b60006080820190508181036000830152613bc681876135b4565b9050613bd560208301866138a7565b8181036040830152613be781856135b4565b9050613bf660608301846138a7565b95945050505050565b60006020820190508181036000830152613c188161361e565b9050919050565b60006020820190508181036000830152613c3881613664565b9050919050565b60006020820190508181036000830152613c5881613687565b9050919050565b60006020820190508181036000830152613c78816136f0565b9050919050565b60006020820190508181036000830152613c9881613713565b9050919050565b60006020820190508181036000830152613cb88161379f565b9050919050565b600060a082019050613cd460008301846137c2565b92915050565b60006020820190508181036000830152613cf4818461382a565b905092915050565b6000602082019050613d1160008301846138a7565b92915050565b6000602082019050613d2c60008301846138c5565b92915050565b6000606082019050613d4760008301866138c5565b613d546020830185613889565b8181036040830152613d668184613512565b9050949350505050565b6000613d7a613d8b565b9050613d8682826144c7565b919050565b6000604051905090565b600067ffffffffffffffff821115613db057613daf61463a565b5b602082029050602081019050919050565b600067ffffffffffffffff821115613ddc57613ddb61463a565b5b613de582614669565b9050602081019050919050565b6000819050602082019050919050565b600081519050919050565b600081519050919050565b6000602082019050919050565b600082825260208201905092915050565b600082825260208201905092915050565b600082825260208201905092915050565b600081905092915050565b6000613e6e8261437b565b9150613e798361437b565b9250826fffffffffffffffffffffffffffffffff03821115613e9e57613e9d6145ad565b5b828201905092915050565b6000613eb4826143d4565b9150613ebf836143d4565b9250827fffffffffffffffffffffffffffffffffffffffffffffffffffffffffffffffff03821115613ef457613ef36145ad565b5b828201905092915050565b6000613f0a826143de565b9150613f15836143de565b92508267ffffffffffffffff03821115613f3257613f316145ad565b5b828201905092915050565b6000613f48826143f2565b9150613f53836143f2565b92508260ff03821115613f6957613f686145ad565b5b828201905092915050565b6000613f7f8261437b565b9150613f8a8361437b565b925082613f9a57613f996145dc565b5b828204905092915050565b6000613fb0826143d4565b9150613fbb836143d4565b925082613fcb57613fca6145dc565b5b828204905092915050565b6000613fe1826143f2565b9150613fec836143f2565b925082613ffc57613ffb6145dc565b5b828204905092915050565b6000808291508390505b60018511156140515780860481111561402d5761402c6145ad565b5b600185161561403c5780820291505b808102905061404a8561467a565b9450614011565b94509492505050565b6000614065826143d4565b9150614070836143d4565b925061409d7fffffffffffffffffffffffffffffffffffffffffffffffffffffffffffffffff84846140a5565b905092915050565b6000826140b55760019050614171565b816140c35760009050614171565b81600181146140d957600281146140e357614112565b6001915050614171565b60ff8411156140f5576140f46145ad565b5b8360020a91508482111561410c5761410b6145ad565b5b50614171565b5060208310610133831016604e8410600b84101617156141475782820a905083811115614142576141416145ad565b5b614171565b6141548484846001614007565b9250905081840481111561416b5761416a6145ad565b5b81810290505b9392505050565b60006141838261437b565b915061418e8361437b565b9250816fffffffffffffffffffffffffffffffff04831182151516156141b7576141b66145ad565b5b828202905092915050565b60006141cd826143d4565b91506141d8836143d4565b9250817fffffffffffffffffffffffffffffffffffffffffffffffffffffffffffffffff0483118215151615614211576142106145ad565b5b828202905092915050565b6000614227826143f2565b9150614232836143f2565b92508160ff048311821515161561424c5761424b6145ad565b5b828202905092915050565b60006142628261437b565b915061426d8361437b565b9250828210156142805761427f6145ad565b5b828203905092915050565b6000614296826143d4565b91506142a1836143d4565b9250828210156142b4576142b36145ad565b5b828203905092915050565b60006142ca826143de565b91506142d5836143de565b9250828210156142e8576142e76145ad565b5b828203905092915050565b60006142fe826143f2565b9150614309836143f2565b92508282101561431c5761431b6145ad565b5b828203905092915050565b6000614332826143a5565b9050919050565b60008115159050919050565b6000819050919050565b60007fffffffff0000000000000000000000000000000000000000000000000000000082169050919050565b60006fffffffffffffffffffffffffffffffff82169050919050565b600061ffff82169050919050565b600073ffffffffffffffffffffffffffffffffffffffff82169050919050565b600062ffffff82169050919050565b6000819050919050565b600067ffffffffffffffff82169050919050565b600060ff82169050919050565b82818337600083830152505050565b60005b8381101561442c578082015181840152602081019050614411565b8381111561443b576000848401525b50505050565b600061444c8261437b565b915060008214156144605761445f6145ad565b5b600182039050919050565b6000614476826143d4565b9150600082141561448a576144896145ad565b5b600182039050919050565b600060028204905060018216806144ad57607f821691505b602082108114156144c1576144c061460b565b5b50919050565b6144d082614669565b810181811067ffffffffffffffff821117156144ef576144ee61463a565b5b80604052505050565b6000614503826143d4565b91507fffffffffffffffffffffffffffffffffffffffffffffffffffffffffffffffff821415614536576145356145ad565b5b600182019050919050565b6000819050919050565b60006145568261437b565b91506145618361437b565b925082614571576145706145dc565b5b828206905092915050565b6000614587826143d4565b9150614592836143d4565b9250826145a2576145a16145dc565b5b828206905092915050565b7f4e487b7100000000000000000000000000000000000000000000000000000000600052601160045260246000fd5b7f4e487b7100000000000000000000000000000000000000000000000000000000600052601260045260246000fd5b7f4e487b7100000000000000000000000000000000000000000000000000000000600052602260045260246000fd5b7f4e487b7100000000000000000000000000000000000000000000000000000000600052604160045260246000fd5b6000601f19601f8301169050919050565b60008160011c9050919050565b7f45434453413a20696e76616c6964207369676e61747572650000000000000000600082015250565b7f3000000000000000000000000000000000000000000000000000000000000000600082015250565b7f537472696e67733a20686578206c656e67746820696e73756666696369656e74600082015250565b7f45434453413a20696e76616c6964207369676e6174757265206c656e67746800600082015250565b7f19457468657265756d205369676e6564204d6573736167653a0a333200000000600082015250565b7f3078000000000000000000000000000000000000000000000000000000000000600082015250565b7f45434453413a20696e76616c6964207369676e6174757265202773272076616c60008201527f7565000000000000000000000000000000000000000000000000000000000000602082015250565b7f45434453413a20696e76616c6964207369676e6174757265202776272076616c60008201527f7565000000000000000000000000000000000000000000000000000000000000602082015250565b7f416363657373436f6e74726f6c3a206163636f756e7420000000000000000000600082015250565b7f7c00000000000000000000000000000000000000000000000000000000000000600082015250565b7f206973206d697373696e6720726f6c6520000000000000000000000000000000600082015250565b7f416363657373436f6e74726f6c3a2063616e206f6e6c792072656e6f756e636560008201527f20726f6c657320666f722073656c660000000000000000000000000000000000602082015250565b6148ee81614327565b81146148f957600080fd5b50565b61490581614339565b811461491057600080fd5b50565b61491c81614345565b811461492757600080fd5b50565b6149338161434f565b811461493e57600080fd5b50565b61494a8161437b565b811461495557600080fd5b50565b61496181614397565b811461496c57600080fd5b50565b614978816143c5565b811461498357600080fd5b50565b61498f816143d4565b811461499a57600080fd5b50565b6149a6816143de565b81146149b157600080fd5b5056fea2646970667358221220e5b2c1d6f3d11524ee541dd6410b9e71ad697956bcabc9086b8e49153518273764736f6c63430008040033",
  "linkReferences": {},
  "deployedLinkReferences": {}
}