{
  "_format": "hh-sol-artifact-1",
  "contractName": "PHGameToken",
  "sourceName": "contracts/PHGameToken.sol",
  "abi": [
    {
      "inputs": [],
      "stateMutability": "nonpayable",
      "type": "constructor"
    },
    {
      "anonymous": false,
      "inputs": [
        {
          "indexed": true,
          "internalType": "address",
          "name": "owner",
          "type": "address"
        },
        {
          "indexed": true,
          "internalType": "address",
          "name": "spender",
          "type": "address"
        },
        {
          "indexed": false,
          "internalType": "uint256",
          "name": "value",
          "type": "uint256"
        }
      ],
      "name": "Approval",
      "type": "event"
    },
    {
      "anonymous": false,
      "inputs": [
        {
          "indexed": true,
          "internalType": "bytes32",
          "name": "role",
          "type": "bytes32"
        },
        {
          "indexed": true,
          "internalType": "bytes32",
          "name": "previousAdminRole",
          "type": "bytes32"
        },
        {
          "indexed": true,
          "internalType": "bytes32",
          "name": "newAdminRole",
          "type": "bytes32"
        }
      ],
      "name": "RoleAdminChanged",
      "type": "event"
    },
    {
      "anonymous": false,
      "inputs": [
        {
          "indexed": true,
          "internalType": "bytes32",
          "name": "role",
          "type": "bytes32"
        },
        {
          "indexed": true,
          "internalType": "address",
          "name": "account",
          "type": "address"
        },
        {
          "indexed": true,
          "internalType": "address",
          "name": "sender",
          "type": "address"
        }
      ],
      "name": "RoleGranted",
      "type": "event"
    },
    {
      "anonymous": false,
      "inputs": [
        {
          "indexed": true,
          "internalType": "bytes32",
          "name": "role",
          "type": "bytes32"
        },
        {
          "indexed": true,
          "internalType": "address",
          "name": "account",
          "type": "address"
        },
        {
          "indexed": true,
          "internalType": "address",
          "name": "sender",
          "type": "address"
        }
      ],
      "name": "RoleRevoked",
      "type": "event"
    },
    {
      "anonymous": false,
      "inputs": [
        {
          "indexed": true,
          "internalType": "address",
          "name": "from",
          "type": "address"
        },
        {
          "indexed": true,
          "internalType": "address",
          "name": "to",
          "type": "address"
        },
        {
          "indexed": false,
          "internalType": "uint256",
          "name": "value",
          "type": "uint256"
        }
      ],
      "name": "Transfer",
      "type": "event"
    },
    {
      "inputs": [],
      "name": "DEFAULT_ADMIN_ROLE",
      "outputs": [
        {
          "internalType": "bytes32",
          "name": "",
          "type": "bytes32"
        }
      ],
      "stateMutability": "view",
      "type": "function"
    },
    {
      "inputs": [],
      "name": "MINTER_ROLE",
      "outputs": [
        {
          "internalType": "bytes32",
          "name": "",
          "type": "bytes32"
        }
      ],
      "stateMutability": "view",
      "type": "function"
    },
    {
      "inputs": [],
      "name": "PAUSER_ROLE",
      "outputs": [
        {
          "internalType": "bytes32",
          "name": "",
          "type": "bytes32"
        }
      ],
      "stateMutability": "view",
      "type": "function"
    },
    {
      "inputs": [
        {
          "internalType": "address",
          "name": "owner",
          "type": "address"
        },
        {
          "internalType": "address",
          "name": "spender",
          "type": "address"
        }
      ],
      "name": "allowance",
      "outputs": [
        {
          "internalType": "uint256",
          "name": "",
          "type": "uint256"
        }
      ],
      "stateMutability": "view",
      "type": "function"
    },
    {
      "inputs": [
        {
          "internalType": "address",
          "name": "spender",
          "type": "address"
        },
        {
          "internalType": "uint256",
          "name": "amount",
          "type": "uint256"
        }
      ],
      "name": "approve",
      "outputs": [
        {
          "internalType": "bool",
          "name": "",
          "type": "bool"
        }
      ],
      "stateMutability": "nonpayable",
      "type": "function"
    },
    {
      "inputs": [
        {
          "internalType": "address",
          "name": "account",
          "type": "address"
        }
      ],
      "name": "balanceOf",
      "outputs": [
        {
          "internalType": "uint256",
          "name": "",
          "type": "uint256"
        }
      ],
      "stateMutability": "view",
      "type": "function"
    },
    {
      "inputs": [
        {
          "internalType": "address",
          "name": "account",
          "type": "address"
        },
        {
          "internalType": "uint256",
          "name": "amount",
          "type": "uint256"
        }
      ],
      "name": "burn",
      "outputs": [],
      "stateMutability": "nonpayable",
      "type": "function"
    },
    {
      "inputs": [],
      "name": "decimals",
      "outputs": [
        {
          "internalType": "uint8",
          "name": "",
          "type": "uint8"
        }
      ],
      "stateMutability": "view",
      "type": "function"
    },
    {
      "inputs": [
        {
          "internalType": "address",
          "name": "spender",
          "type": "address"
        },
        {
          "internalType": "uint256",
          "name": "subtractedValue",
          "type": "uint256"
        }
      ],
      "name": "decreaseAllowance",
      "outputs": [
        {
          "internalType": "bool",
          "name": "",
          "type": "bool"
        }
      ],
      "stateMutability": "nonpayable",
      "type": "function"
    },
    {
      "inputs": [
        {
          "internalType": "bytes32",
          "name": "role",
          "type": "bytes32"
        }
      ],
      "name": "getRoleAdmin",
      "outputs": [
        {
          "internalType": "bytes32",
          "name": "",
          "type": "bytes32"
        }
      ],
      "stateMutability": "view",
      "type": "function"
    },
    {
      "inputs": [
        {
          "internalType": "bytes32",
          "name": "role",
          "type": "bytes32"
        },
        {
          "internalType": "address",
          "name": "account",
          "type": "address"
        }
      ],
      "name": "grantRole",
      "outputs": [],
      "stateMutability": "nonpayable",
      "type": "function"
    },
    {
      "inputs": [
        {
          "internalType": "bytes32",
          "name": "role",
          "type": "bytes32"
        },
        {
          "internalType": "address",
          "name": "account",
          "type": "address"
        }
      ],
      "name": "hasRole",
      "outputs": [
        {
          "internalType": "bool",
          "name": "",
          "type": "bool"
        }
      ],
      "stateMutability": "view",
      "type": "function"
    },
    {
      "inputs": [
        {
          "internalType": "address",
          "name": "spender",
          "type": "address"
        },
        {
          "internalType": "uint256",
          "name": "addedValue",
          "type": "uint256"
        }
      ],
      "name": "increaseAllowance",
      "outputs": [
        {
          "internalType": "bool",
          "name": "",
          "type": "bool"
        }
      ],
      "stateMutability": "nonpayable",
      "type": "function"
    },
    {
      "inputs": [
        {
          "internalType": "address",
          "name": "account",
          "type": "address"
        },
        {
          "internalType": "uint256",
          "name": "amount",
          "type": "uint256"
        }
      ],
      "name": "mint",
      "outputs": [],
      "stateMutability": "nonpayable",
      "type": "function"
    },
    {
      "inputs": [],
      "name": "name",
      "outputs": [
        {
          "internalType": "string",
          "name": "",
          "type": "string"
        }
      ],
      "stateMutability": "view",
      "type": "function"
    },
    {
      "inputs": [
        {
          "internalType": "bytes32",
          "name": "role",
          "type": "bytes32"
        },
        {
          "internalType": "address",
          "name": "account",
          "type": "address"
        }
      ],
      "name": "renounceRole",
      "outputs": [],
      "stateMutability": "nonpayable",
      "type": "function"
    },
    {
      "inputs": [
        {
          "internalType": "bytes32",
          "name": "role",
          "type": "bytes32"
        },
        {
          "internalType": "address",
          "name": "account",
          "type": "address"
        }
      ],
      "name": "revokeRole",
      "outputs": [],
      "stateMutability": "nonpayable",
      "type": "function"
    },
    {
      "inputs": [
        {
          "internalType": "bytes4",
          "name": "interfaceId",
          "type": "bytes4"
        }
      ],
      "name": "supportsInterface",
      "outputs": [
        {
          "internalType": "bool",
          "name": "",
          "type": "bool"
        }
      ],
      "stateMutability": "view",
      "type": "function"
    },
    {
      "inputs": [],
      "name": "symbol",
      "outputs": [
        {
          "internalType": "string",
          "name": "",
          "type": "string"
        }
      ],
      "stateMutability": "view",
      "type": "function"
    },
    {
      "inputs": [],
      "name": "totalSupply",
      "outputs": [
        {
          "internalType": "uint256",
          "name": "",
          "type": "uint256"
        }
      ],
      "stateMutability": "view",
      "type": "function"
    },
    {
      "inputs": [
        {
          "internalType": "address",
          "name": "to",
          "type": "address"
        },
        {
          "internalType": "uint256",
          "name": "amount",
          "type": "uint256"
        }
      ],
      "name": "transfer",
      "outputs": [
        {
          "internalType": "bool",
          "name": "",
          "type": "bool"
        }
      ],
      "stateMutability": "nonpayable",
      "type": "function"
    },
    {
      "inputs": [
        {
          "internalType": "address",
          "name": "from",
          "type": "address"
        },
        {
          "internalType": "address",
          "name": "to",
          "type": "address"
        },
        {
          "internalType": "uint256",
          "name": "amount",
          "type": "uint256"
        }
      ],
      "name": "transferFrom",
      "outputs": [
        {
          "internalType": "bool",
          "name": "",
          "type": "bool"
        }
      ],
      "stateMutability": "nonpayable",
      "type": "function"
    }
  ],
  "bytecode": "0x60806040523480156200001157600080fd5b506040518060400160405280601781526020017f506978656c204865726f65732047616d6520546f6b656e0000000000000000008152506040518060400160405280600481526020017f50494b550000000000000000000000000000000000000000000000000000000081525081600390805190602001906200009692919062000296565b508060049080519060200190620000af92919062000296565b505050620000c76000801b336200013160201b60201c565b620000f97f65d7a28e3265b37a6474929f336521b332c1681b933f6cb9f3376673440d862a336200013160201b60201c565b6200012b7f9f2df0fed2c77648de5860a4cc508cd0818c85b8b8a1ab4ceeef8d981c8956a6336200013160201b60201c565b620003ab565b6200014382826200022360201b60201c565b6200021f5760016005600084815260200190815260200160002060000160008373ffffffffffffffffffffffffffffffffffffffff1673ffffffffffffffffffffffffffffffffffffffff16815260200190815260200160002060006101000a81548160ff021916908315150217905550620001c46200028e60201b60201c565b73ffffffffffffffffffffffffffffffffffffffff168173ffffffffffffffffffffffffffffffffffffffff16837f2f8788117e7eff1d82e926ec794901d17c78024a50270940304540a733656f0d60405160405180910390a45b5050565b60006005600084815260200190815260200160002060000160008373ffffffffffffffffffffffffffffffffffffffff1673ffffffffffffffffffffffffffffffffffffffff16815260200190815260200160002060009054906101000a900460ff16905092915050565b600033905090565b828054620002a49062000346565b90600052602060002090601f016020900481019282620002c8576000855562000314565b82601f10620002e357805160ff191683800117855562000314565b8280016001018555821562000314579182015b8281111562000313578251825591602001919060010190620002f6565b5b50905062000323919062000327565b5090565b5b808211156200034257600081600090555060010162000328565b5090565b600060028204905060018216806200035f57607f821691505b602082108114156200037657620003756200037c565b5b50919050565b7f4e487b7100000000000000000000000000000000000000000000000000000000600052602260045260246000fd5b61259680620003bb6000396000f3fe608060405234801561001057600080fd5b50600436106101425760003560e01c806370a08231116100b8578063a457c2d71161007c578063a457c2d71461039d578063a9059cbb146103cd578063d5391393146103fd578063d547741f1461041b578063dd62ed3e14610437578063e63ab1e91461046757610142565b806370a08231146102e557806391d148541461031557806395d89b41146103455780639dc29fac14610363578063a217fddf1461037f57610142565b8063248a9ca31161010a578063248a9ca3146102135780632f2ff15d14610243578063313ce5671461025f57806336568abe1461027d578063395093511461029957806340c10f19146102c957610142565b806301ffc9a71461014757806306fdde0314610177578063095ea7b31461019557806318160ddd146101c557806323b872dd146101e3575b600080fd5b610161600480360381019061015c91906119db565b610485565b60405161016e9190611cce565b60405180910390f35b61017f6104ff565b60405161018c9190611d04565b60405180910390f35b6101af60048036038101906101aa919061193a565b610591565b6040516101bc9190611cce565b60405180910390f35b6101cd6105b4565b6040516101da9190611ea6565b60405180910390f35b6101fd60048036038101906101f891906118eb565b6105be565b60405161020a9190611cce565b60405180910390f35b61022d60048036038101906102289190611976565b6105ed565b60405161023a9190611ce9565b60405180910390f35b61025d6004803603810190610258919061199f565b61060d565b005b61026761062e565b6040516102749190611ec1565b60405180910390f35b6102976004803603810190610292919061199f565b610637565b005b6102b360048036038101906102ae919061193a565b6106ba565b6040516102c09190611cce565b60405180910390f35b6102e360048036038101906102de919061193a565b6106f1565b005b6102ff60048036038101906102fa9190611886565b61072a565b60405161030c9190611ea6565b60405180910390f35b61032f600480360381019061032a919061199f565b610772565b60405161033c9190611cce565b60405180910390f35b61034d6107dd565b60405161035a9190611d04565b60405180910390f35b61037d6004803603810190610378919061193a565b61086f565b005b6103876108a8565b6040516103949190611ce9565b60405180910390f35b6103b760048036038101906103b2919061193a565b6108af565b6040516103c49190611cce565b60405180910390f35b6103e760048036038101906103e2919061193a565b610926565b6040516103f49190611cce565b60405180910390f35b610405610949565b6040516104129190611ce9565b60405180910390f35b6104356004803603810190610430919061199f565b61096d565b005b610451600480360381019061044c91906118af565b61098e565b60405161045e9190611ea6565b60405180910390f35b61046f610a15565b60405161047c9190611ce9565b60405180910390f35b60007f7965db0b000000000000000000000000000000000000000000000000000000007bffffffffffffffffffffffffffffffffffffffffffffffffffffffff1916827bffffffffffffffffffffffffffffffffffffffffffffffffffffffff191614806104f857506104f782610a39565b5b9050919050565b60606003805461050e906120cf565b80601f016020809104026020016040519081016040528092919081815260200182805461053a906120cf565b80156105875780601f1061055c57610100808354040283529160200191610587565b820191906000526020600020905b81548152906001019060200180831161056a57829003601f168201915b5050505050905090565b60008061059c610aa3565b90506105a9818585610aab565b600191505092915050565b6000600254905090565b6000806105c9610aa3565b90506105d6858285610c76565b6105e1858585610d02565b60019150509392505050565b600060056000838152602001908152602001600020600101549050919050565b610616826105ed565b61061f81610f83565b6106298383610f97565b505050565b60006012905090565b61063f610aa3565b73ffffffffffffffffffffffffffffffffffffffff168173ffffffffffffffffffffffffffffffffffffffff16146106ac576040517f08c379a00000000000000000000000000000000000000000000000000000000081526004016106a390611e66565b60405180910390fd5b6106b68282611078565b5050565b6000806106c5610aa3565b90506106e68185856106d7858961098e565b6106e19190611f03565b610aab565b600191505092915050565b7f9f2df0fed2c77648de5860a4cc508cd0818c85b8b8a1ab4ceeef8d981c8956a661071b81610f83565b610725838361115a565b505050565b60008060008373ffffffffffffffffffffffffffffffffffffffff1673ffffffffffffffffffffffffffffffffffffffff168152602001908152602001600020549050919050565b60006005600084815260200190815260200160002060000160008373ffffffffffffffffffffffffffffffffffffffff1673ffffffffffffffffffffffffffffffffffffffff16815260200190815260200160002060009054906101000a900460ff16905092915050565b6060600480546107ec906120cf565b80601f0160208091040260200160405190810160405280929190818152602001828054610818906120cf565b80156108655780601f1061083a57610100808354040283529160200191610865565b820191906000526020600020905b81548152906001019060200180831161084857829003601f168201915b5050505050905090565b7f9f2df0fed2c77648de5860a4cc508cd0818c85b8b8a1ab4ceeef8d981c8956a661089981610f83565b6108a383836112ba565b505050565b6000801b81565b6000806108ba610aa3565b905060006108c8828661098e565b90508381101561090d576040517f08c379a000000000000000000000000000000000000000000000000000000000815260040161090490611e46565b60405180910390fd5b61091a8286868403610aab565b60019250505092915050565b600080610931610aa3565b905061093e818585610d02565b600191505092915050565b7f9f2df0fed2c77648de5860a4cc508cd0818c85b8b8a1ab4ceeef8d981c8956a681565b610976826105ed565b61097f81610f83565b6109898383611078565b505050565b6000600160008473ffffffffffffffffffffffffffffffffffffffff1673ffffffffffffffffffffffffffffffffffffffff16815260200190815260200160002060008373ffffffffffffffffffffffffffffffffffffffff1673ffffffffffffffffffffffffffffffffffffffff16815260200190815260200160002054905092915050565b7f65d7a28e3265b37a6474929f336521b332c1681b933f6cb9f3376673440d862a81565b60007f01ffc9a7000000000000000000000000000000000000000000000000000000007bffffffffffffffffffffffffffffffffffffffffffffffffffffffff1916827bffffffffffffffffffffffffffffffffffffffffffffffffffffffff1916149050919050565b600033905090565b600073ffffffffffffffffffffffffffffffffffffffff168373ffffffffffffffffffffffffffffffffffffffff161415610b1b576040517f08c379a0000000000000000000000000000000000000000000000000000000008152600401610b1290611e26565b60405180910390fd5b600073ffffffffffffffffffffffffffffffffffffffff168273ffffffffffffffffffffffffffffffffffffffff161415610b8b576040517f08c379a0000000000000000000000000000000000000000000000000000000008152600401610b8290611d86565b60405180910390fd5b80600160008573ffffffffffffffffffffffffffffffffffffffff1673ffffffffffffffffffffffffffffffffffffffff16815260200190815260200160002060008473ffffffffffffffffffffffffffffffffffffffff1673ffffffffffffffffffffffffffffffffffffffff168152602001908152602001600020819055508173ffffffffffffffffffffffffffffffffffffffff168373ffffffffffffffffffffffffffffffffffffffff167f8c5be1e5ebec7d5bd14f71427d1e84f3dd0314c0f7b2291e5b200ac8c7c3b92583604051610c699190611ea6565b60405180910390a3505050565b6000610c82848461098e565b90507fffffffffffffffffffffffffffffffffffffffffffffffffffffffffffffffff8114610cfc5781811015610cee576040517f08c379a0000000000000000000000000000000000000000000000000000000008152600401610ce590611da6565b60405180910390fd5b610cfb8484848403610aab565b5b50505050565b600073ffffffffffffffffffffffffffffffffffffffff168373ffffffffffffffffffffffffffffffffffffffff161415610d72576040517f08c379a0000000000000000000000000000000000000000000000000000000008152600401610d6990611e06565b60405180910390fd5b600073ffffffffffffffffffffffffffffffffffffffff168273ffffffffffffffffffffffffffffffffffffffff161415610de2576040517f08c379a0000000000000000000000000000000000000000000000000000000008152600401610dd990611d46565b60405180910390fd5b610ded838383611491565b60008060008573ffffffffffffffffffffffffffffffffffffffff1673ffffffffffffffffffffffffffffffffffffffff16815260200190815260200160002054905081811015610e73576040517f08c379a0000000000000000000000000000000000000000000000000000000008152600401610e6a90611dc6565b60405180910390fd5b8181036000808673ffffffffffffffffffffffffffffffffffffffff1673ffffffffffffffffffffffffffffffffffffffff16815260200190815260200160002081905550816000808573ffffffffffffffffffffffffffffffffffffffff1673ffffffffffffffffffffffffffffffffffffffff1681526020019081526020016000206000828254610f069190611f03565b925050819055508273ffffffffffffffffffffffffffffffffffffffff168473ffffffffffffffffffffffffffffffffffffffff167fddf252ad1be2c89b69c2b068fc378daa952ba7f163c4a11628f55a4df523b3ef84604051610f6a9190611ea6565b60405180910390a3610f7d848484611496565b50505050565b610f9481610f8f610aa3565b61149b565b50565b610fa18282610772565b6110745760016005600084815260200190815260200160002060000160008373ffffffffffffffffffffffffffffffffffffffff1673ffffffffffffffffffffffffffffffffffffffff16815260200190815260200160002060006101000a81548160ff021916908315150217905550611019610aa3565b73ffffffffffffffffffffffffffffffffffffffff168173ffffffffffffffffffffffffffffffffffffffff16837f2f8788117e7eff1d82e926ec794901d17c78024a50270940304540a733656f0d60405160405180910390a45b5050565b6110828282610772565b156111565760006005600084815260200190815260200160002060000160008373ffffffffffffffffffffffffffffffffffffffff1673ffffffffffffffffffffffffffffffffffffffff16815260200190815260200160002060006101000a81548160ff0219169083151502179055506110fb610aa3565b73ffffffffffffffffffffffffffffffffffffffff168173ffffffffffffffffffffffffffffffffffffffff16837ff6391f5c32d9c69d2a47ea670b442974b53935d1edc7fd64eb21e047a839171b60405160405180910390a45b5050565b600073ffffffffffffffffffffffffffffffffffffffff168273ffffffffffffffffffffffffffffffffffffffff1614156111ca576040517f08c379a00000000000000000000000000000000000000000000000000000000081526004016111c190611e86565b60405180910390fd5b6111d660008383611491565b80600260008282546111e89190611f03565b92505081905550806000808473ffffffffffffffffffffffffffffffffffffffff1673ffffffffffffffffffffffffffffffffffffffff168152602001908152602001600020600082825461123d9190611f03565b925050819055508173ffffffffffffffffffffffffffffffffffffffff16600073ffffffffffffffffffffffffffffffffffffffff167fddf252ad1be2c89b69c2b068fc378daa952ba7f163c4a11628f55a4df523b3ef836040516112a29190611ea6565b60405180910390a36112b660008383611496565b5050565b600073ffffffffffffffffffffffffffffffffffffffff168273ffffffffffffffffffffffffffffffffffffffff16141561132a576040517f08c379a000000000000000000000000000000000000000000000000000000000815260040161132190611de6565b60405180910390fd5b61133682600083611491565b60008060008473ffffffffffffffffffffffffffffffffffffffff1673ffffffffffffffffffffffffffffffffffffffff168152602001908152602001600020549050818110156113bc576040517f08c379a00000000000000000000000000000000000000000000000000000000081526004016113b390611d66565b60405180910390fd5b8181036000808573ffffffffffffffffffffffffffffffffffffffff1673ffffffffffffffffffffffffffffffffffffffff1681526020019081526020016000208190555081600260008282546114139190611fb3565b92505081905550600073ffffffffffffffffffffffffffffffffffffffff168373ffffffffffffffffffffffffffffffffffffffff167fddf252ad1be2c89b69c2b068fc378daa952ba7f163c4a11628f55a4df523b3ef846040516114789190611ea6565b60405180910390a361148c83600084611496565b505050565b505050565b505050565b6114a58282610772565b611534576114ca8173ffffffffffffffffffffffffffffffffffffffff166014611538565b6114d88360001c6020611538565b6040516020016114e9929190611c94565b6040516020818303038152906040526040517f08c379a000000000000000000000000000000000000000000000000000000000815260040161152b9190611d04565b60405180910390fd5b5050565b60606000600283600261154b9190611f59565b6115559190611f03565b67ffffffffffffffff811115611594577f4e487b7100000000000000000000000000000000000000000000000000000000600052604160045260246000fd5b6040519080825280601f01601f1916602001820160405280156115c65781602001600182028036833780820191505090505b5090507f300000000000000000000000000000000000000000000000000000000000000081600081518110611624577f4e487b7100000000000000000000000000000000000000000000000000000000600052603260045260246000fd5b60200101907effffffffffffffffffffffffffffffffffffffffffffffffffffffffffffff1916908160001a9053507f7800000000000000000000000000000000000000000000000000000000000000816001815181106116ae577f4e487b7100000000000000000000000000000000000000000000000000000000600052603260045260246000fd5b60200101907effffffffffffffffffffffffffffffffffffffffffffffffffffffffffffff1916908160001a905350600060018460026116ee9190611f59565b6116f89190611f03565b90505b60018111156117e4577f3031323334353637383961626364656600000000000000000000000000000000600f861660108110611760577f4e487b7100000000000000000000000000000000000000000000000000000000600052603260045260246000fd5b1a60f81b82828151811061179d577f4e487b7100000000000000000000000000000000000000000000000000000000600052603260045260246000fd5b60200101907effffffffffffffffffffffffffffffffffffffffffffffffffffffffffffff1916908160001a905350600485901c9450806117dd906120a5565b90506116fb565b5060008414611828576040517f08c379a000000000000000000000000000000000000000000000000000000000815260040161181f90611d26565b60405180910390fd5b8091505092915050565b60008135905061184181612504565b92915050565b6000813590506118568161251b565b92915050565b60008135905061186b81612532565b92915050565b60008135905061188081612549565b92915050565b60006020828403121561189857600080fd5b60006118a684828501611832565b91505092915050565b600080604083850312156118c257600080fd5b60006118d085828601611832565b92505060206118e185828601611832565b9150509250929050565b60008060006060848603121561190057600080fd5b600061190e86828701611832565b935050602061191f86828701611832565b925050604061193086828701611871565b9150509250925092565b6000806040838503121561194d57600080fd5b600061195b85828601611832565b925050602061196c85828601611871565b9150509250929050565b60006020828403121561198857600080fd5b600061199684828501611847565b91505092915050565b600080604083850312156119b257600080fd5b60006119c085828601611847565b92505060206119d185828601611832565b9150509250929050565b6000602082840312156119ed57600080fd5b60006119fb8482850161185c565b91505092915050565b611a0d81611ff9565b82525050565b611a1c81612005565b82525050565b6000611a2d82611edc565b611a378185611ee7565b9350611a47818560208601612072565b611a508161215f565b840191505092915050565b6000611a6682611edc565b611a708185611ef8565b9350611a80818560208601612072565b80840191505092915050565b6000611a99602083611ee7565b9150611aa482612170565b602082019050919050565b6000611abc602383611ee7565b9150611ac782612199565b604082019050919050565b6000611adf602283611ee7565b9150611aea826121e8565b604082019050919050565b6000611b02602283611ee7565b9150611b0d82612237565b604082019050919050565b6000611b25601d83611ee7565b9150611b3082612286565b602082019050919050565b6000611b48602683611ee7565b9150611b53826122af565b604082019050919050565b6000611b6b602183611ee7565b9150611b76826122fe565b604082019050919050565b6000611b8e602583611ee7565b9150611b998261234d565b604082019050919050565b6000611bb1602483611ee7565b9150611bbc8261239c565b604082019050919050565b6000611bd4601783611ef8565b9150611bdf826123eb565b601782019050919050565b6000611bf7602583611ee7565b9150611c0282612414565b604082019050919050565b6000611c1a601183611ef8565b9150611c2582612463565b601182019050919050565b6000611c3d602f83611ee7565b9150611c488261248c565b604082019050919050565b6000611c60601f83611ee7565b9150611c6b826124db565b602082019050919050565b611c7f8161205b565b82525050565b611c8e81612065565b82525050565b6000611c9f82611bc7565b9150611cab8285611a5b565b9150611cb682611c0d565b9150611cc28284611a5b565b91508190509392505050565b6000602082019050611ce36000830184611a04565b92915050565b6000602082019050611cfe6000830184611a13565b92915050565b60006020820190508181036000830152611d1e8184611a22565b905092915050565b60006020820190508181036000830152611d3f81611a8c565b9050919050565b60006020820190508181036000830152611d5f81611aaf565b9050919050565b60006020820190508181036000830152611d7f81611ad2565b9050919050565b60006020820190508181036000830152611d9f81611af5565b9050919050565b60006020820190508181036000830152611dbf81611b18565b9050919050565b60006020820190508181036000830152611ddf81611b3b565b9050919050565b60006020820190508181036000830152611dff81611b5e565b9050919050565b60006020820190508181036000830152611e1f81611b81565b9050919050565b60006020820190508181036000830152611e3f81611ba4565b9050919050565b60006020820190508181036000830152611e5f81611bea565b9050919050565b60006020820190508181036000830152611e7f81611c30565b9050919050565b60006020820190508181036000830152611e9f81611c53565b9050919050565b6000602082019050611ebb6000830184611c76565b92915050565b6000602082019050611ed66000830184611c85565b92915050565b600081519050919050565b600082825260208201905092915050565b600081905092915050565b6000611f0e8261205b565b9150611f198361205b565b9250827fffffffffffffffffffffffffffffffffffffffffffffffffffffffffffffffff03821115611f4e57611f4d612101565b5b828201905092915050565b6000611f648261205b565b9150611f6f8361205b565b9250817fffffffffffffffffffffffffffffffffffffffffffffffffffffffffffffffff0483118215151615611fa857611fa7612101565b5b828202905092915050565b6000611fbe8261205b565b9150611fc98361205b565b925082821015611fdc57611fdb612101565b5b828203905092915050565b6000611ff28261203b565b9050919050565b60008115159050919050565b6000819050919050565b60007fffffffff0000000000000000000000000000000000000000000000000000000082169050919050565b600073ffffffffffffffffffffffffffffffffffffffff82169050919050565b6000819050919050565b600060ff82169050919050565b60005b83811015612090578082015181840152602081019050612075565b8381111561209f576000848401525b50505050565b60006120b08261205b565b915060008214156120c4576120c3612101565b5b600182039050919050565b600060028204905060018216806120e757607f821691505b602082108114156120fb576120fa612130565b5b50919050565b7f4e487b7100000000000000000000000000000000000000000000000000000000600052601160045260246000fd5b7f4e487b7100000000000000000000000000000000000000000000000000000000600052602260045260246000fd5b6000601f19601f8301169050919050565b7f537472696e67733a20686578206c656e67746820696e73756666696369656e74600082015250565b7f45524332303a207472616e7366657220746f20746865207a65726f206164647260008201527f6573730000000000000000000000000000000000000000000000000000000000602082015250565b7f45524332303a206275726e20616d6f756e7420657863656564732062616c616e60008201527f6365000000000000000000000000000000000000000000000000000000000000602082015250565b7f45524332303a20617070726f766520746f20746865207a65726f20616464726560008201527f7373000000000000000000000000000000000000000000000000000000000000602082015250565b7f45524332303a20696e73756666696369656e7420616c6c6f77616e6365000000600082015250565b7f45524332303a207472616e7366657220616d6f756e742065786365656473206260008201527f616c616e63650000000000000000000000000000000000000000000000000000602082015250565b7f45524332303a206275726e2066726f6d20746865207a65726f2061646472657360008201527f7300000000000000000000000000000000000000000000000000000000000000602082015250565b7f45524332303a207472616e736665722066726f6d20746865207a65726f20616460008201527f6472657373000000000000000000000000000000000000000000000000000000602082015250565b7f45524332303a20617070726f76652066726f6d20746865207a65726f2061646460008201527f7265737300000000000000000000000000000000000000000000000000000000602082015250565b7f416363657373436f6e74726f6c3a206163636f756e7420000000000000000000600082015250565b7f45524332303a2064656372656173656420616c6c6f77616e63652062656c6f7760008201527f207a65726f000000000000000000000000000000000000000000000000000000602082015250565b7f206973206d697373696e6720726f6c6520000000000000000000000000000000600082015250565b7f416363657373436f6e74726f6c3a2063616e206f6e6c792072656e6f756e636560008201527f20726f6c657320666f722073656c660000000000000000000000000000000000602082015250565b7f45524332303a206d696e7420746f20746865207a65726f206164647265737300600082015250565b61250d81611fe7565b811461251857600080fd5b50565b61252481612005565b811461252f57600080fd5b50565b61253b8161200f565b811461254657600080fd5b50565b6125528161205b565b811461255d57600080fd5b5056fea2646970667358221220c066b7e369823efd48b53f9acabd9c1c0e1839c6f203e9043c689ab53004730f64736f6c63430008040033",
  "linkReferences": {},
  "deployedLinkReferences": {}
}