{
  "_format": "hh-sol-artifact-1",
  "contractName": "PHGameExchange",
  "sourceName": "contracts/PHGameExchange.sol",
  "abi": [
    {
      "inputs": [],
      "stateMutability": "nonpayable",
      "type": "constructor"
    },
    {
      "inputs": [],
      "name": "ZeroAddress",
      "type": "error"
    },
    {
      "anonymous": false,
      "inputs": [
        {
          "indexed": true,
          "internalType": "address",
          "name": "account",
          "type": "address"
        },
        {
          "indexed": true,
          "internalType": "uint128",
          "name": "cID",
          "type": "uint128"
        },
        {
          "indexed": true,
          "internalType": "uint128",
          "name": "tID",
          "type": "uint128"
        },
        {
          "indexed": false,
          "internalType": "uint64",
          "name": "consumedExp",
          "type": "uint64"
        },
        {
          "indexed": false,
          "internalType": "uint256",
          "name": "tokenAmount",
          "type": "uint256"
        }
      ],
      "name": "ExchangeToToken",
      "type": "event"
    },
    {
      "anonymous": false,
      "inputs": [
        {
          "indexed": true,
          "internalType": "address",
          "name": "previousOwner",
          "type": "address"
        },
        {
          "indexed": true,
          "internalType": "address",
          "name": "newOwner",
          "type": "address"
        }
      ],
      "name": "OwnershipTransferred",
      "type": "event"
    },
    {
      "inputs": [],
      "name": "exchangeRate",
      "outputs": [
        {
          "internalType": "uint256",
          "name": "",
          "type": "uint256"
        }
      ],
      "stateMutability": "view",
      "type": "function"
    },
    {
      "inputs": [
        {
          "internalType": "uint256",
          "name": "uts",
          "type": "uint256"
        },
        {
          "internalType": "uint128",
          "name": "cID",
          "type": "uint128"
        },
        {
          "internalType": "uint128",
          "name": "tID",
          "type": "uint128"
        },
        {
          "internalType": "uint64",
          "name": "expAmount",
          "type": "uint64"
        },
        {
          "internalType": "bytes",
          "name": "signature",
          "type": "bytes"
        }
      ],
      "name": "exchangeToToken",
      "outputs": [
        {
          "internalType": "bool",
          "name": "",
          "type": "bool"
        }
      ],
      "stateMutability": "nonpayable",
      "type": "function"
    },
    {
      "inputs": [],
      "name": "owner",
      "outputs": [
        {
          "internalType": "address",
          "name": "",
          "type": "address"
        }
      ],
      "stateMutability": "view",
      "type": "function"
    },
    {
      "inputs": [],
      "name": "renounceOwnership",
      "outputs": [],
      "stateMutability": "nonpayable",
      "type": "function"
    },
    {
      "inputs": [
        {
          "internalType": "uint256",
          "name": "rate",
          "type": "uint256"
        }
      ],
      "name": "setExchangeRate",
      "outputs": [],
      "stateMutability": "nonpayable",
      "type": "function"
    },
    {
      "inputs": [
        {
          "internalType": "contract IPHGameToken",
          "name": "token_",
          "type": "address"
        }
      ],
      "name": "setToken",
      "outputs": [],
      "stateMutability": "nonpayable",
      "type": "function"
    },
    {
      "inputs": [
        {
          "internalType": "contract IPHBattleVault",
          "name": "vault_",
          "type": "address"
        }
      ],
      "name": "setVault",
      "outputs": [],
      "stateMutability": "nonpayable",
      "type": "function"
    },
    {
      "inputs": [],
      "name": "token",
      "outputs": [
        {
          "internalType": "contract IPHGameToken",
          "name": "",
          "type": "address"
        }
      ],
      "stateMutability": "view",
      "type": "function"
    },
    {
      "inputs": [
        {
          "internalType": "address",
          "name": "newOwner",
          "type": "address"
        }
      ],
      "name": "transferOwnership",
      "outputs": [],
      "stateMutability": "nonpayable",
      "type": "function"
    },
    {
      "inputs": [],
      "name": "vault",
      "outputs": [
        {
          "internalType": "contract IPHBattleVault",
          "name": "",
          "type": "address"
        }
      ],
      "stateMutability": "view",
      "type": "function"
    }
  ],
  "bytecode": "0x608060405234801561001057600080fd5b5061002d61002261004060201b60201c565b61004860201b60201c565b66038d7ea4c6800060038190555061010c565b600033905090565b60008060009054906101000a900473ffffffffffffffffffffffffffffffffffffffff169050816000806101000a81548173ffffffffffffffffffffffffffffffffffffffff021916908373ffffffffffffffffffffffffffffffffffffffff1602179055508173ffffffffffffffffffffffffffffffffffffffff168173ffffffffffffffffffffffffffffffffffffffff167f8be0079c531659141344cd1fd0a4f28419497f9722a3daafe3b4186f6b6457e060405160405180910390a35050565b6111748061011b6000396000f3fe608060405234801561001057600080fd5b506004361061009e5760003560e01c8063a0fabae711610066578063a0fabae714610121578063db068e0e14610151578063f2fde38b1461016d578063fbfa77cf14610189578063fc0c546a146101a75761009e565b8063144fa6d7146100a35780633ba0b9a9146100bf5780636817031b146100dd578063715018a6146100f95780638da5cb5b14610103575b600080fd5b6100bd60048036038101906100b89190610a5d565b6101c5565b005b6100c76102ec565b6040516100d49190610cfb565b60405180910390f35b6100f760048036038101906100f29190610a34565b6102f2565b005b610101610419565b005b61010b6104a1565b6040516101189190610c26565b60405180910390f35b61013b60048036038101906101369190610aaf565b6104ca565b6040516101489190610c6a565b60405180910390f35b61016b60048036038101906101669190610a86565b61068f565b005b61018760048036038101906101829190610a0b565b610715565b005b61019161080d565b60405161019e9190610c85565b60405180910390f35b6101af610833565b6040516101bc9190610ca0565b60405180910390f35b6101cd610859565b73ffffffffffffffffffffffffffffffffffffffff166101eb6104a1565b73ffffffffffffffffffffffffffffffffffffffff1614610241576040517f08c379a000000000000000000000000000000000000000000000000000000000815260040161023890610cdb565b60405180910390fd5b600073ffffffffffffffffffffffffffffffffffffffff168173ffffffffffffffffffffffffffffffffffffffff1614156102a8576040517fd92e233d00000000000000000000000000000000000000000000000000000000815260040160405180910390fd5b80600260006101000a81548173ffffffffffffffffffffffffffffffffffffffff021916908373ffffffffffffffffffffffffffffffffffffffff16021790555050565b60035481565b6102fa610859565b73ffffffffffffffffffffffffffffffffffffffff166103186104a1565b73ffffffffffffffffffffffffffffffffffffffff161461036e576040517f08c379a000000000000000000000000000000000000000000000000000000000815260040161036590610cdb565b60405180910390fd5b600073ffffffffffffffffffffffffffffffffffffffff168173ffffffffffffffffffffffffffffffffffffffff1614156103d5576040517fd92e233d00000000000000000000000000000000000000000000000000000000815260040160405180910390fd5b80600160006101000a81548173ffffffffffffffffffffffffffffffffffffffff021916908373ffffffffffffffffffffffffffffffffffffffff16021790555050565b610421610859565b73ffffffffffffffffffffffffffffffffffffffff1661043f6104a1565b73ffffffffffffffffffffffffffffffffffffffff1614610495576040517f08c379a000000000000000000000000000000000000000000000000000000000815260040161048c90610cdb565b60405180910390fd5b61049f6000610861565b565b60008060009054906101000a900473ffffffffffffffffffffffffffffffffffffffff16905090565b6000806003548467ffffffffffffffff166104e59190610e1c565b9050600160009054906101000a900473ffffffffffffffffffffffffffffffffffffffff1673ffffffffffffffffffffffffffffffffffffffff166372da54d588888888886040518663ffffffff1660e01b815260040161054a959493929190610d16565b600060405180830381600087803b15801561056457600080fd5b505af1158015610578573d6000803e3d6000fd5b50505050600260009054906101000a900473ffffffffffffffffffffffffffffffffffffffff1673ffffffffffffffffffffffffffffffffffffffff166340c10f1933836040518363ffffffff1660e01b81526004016105d9929190610c41565b600060405180830381600087803b1580156105f357600080fd5b505af1158015610607573d6000803e3d6000fd5b50505050846fffffffffffffffffffffffffffffffff16866fffffffffffffffffffffffffffffffff163373ffffffffffffffffffffffffffffffffffffffff167f5f3185930e54e2829944f26ff30ad2e774384454c8fb405d105db00fddd43e7a8785604051610679929190610d70565b60405180910390a4600191505095945050505050565b610697610859565b73ffffffffffffffffffffffffffffffffffffffff166106b56104a1565b73ffffffffffffffffffffffffffffffffffffffff161461070b576040517f08c379a000000000000000000000000000000000000000000000000000000000815260040161070290610cdb565b60405180910390fd5b8060038190555050565b61071d610859565b73ffffffffffffffffffffffffffffffffffffffff1661073b6104a1565b73ffffffffffffffffffffffffffffffffffffffff1614610791576040517f08c379a000000000000000000000000000000000000000000000000000000000815260040161078890610cdb565b60405180910390fd5b600073ffffffffffffffffffffffffffffffffffffffff168173ffffffffffffffffffffffffffffffffffffffff161415610801576040517f08c379a00000000000000000000000000000000000000000000000000000000081526004016107f890610cbb565b60405180910390fd5b61080a81610861565b50565b600160009054906101000a900473ffffffffffffffffffffffffffffffffffffffff1681565b600260009054906101000a900473ffffffffffffffffffffffffffffffffffffffff1681565b600033905090565b60008060009054906101000a900473ffffffffffffffffffffffffffffffffffffffff169050816000806101000a81548173ffffffffffffffffffffffffffffffffffffffff021916908373ffffffffffffffffffffffffffffffffffffffff1602179055508173ffffffffffffffffffffffffffffffffffffffff168173ffffffffffffffffffffffffffffffffffffffff167f8be0079c531659141344cd1fd0a4f28419497f9722a3daafe3b4186f6b6457e060405160405180910390a35050565b600061093861093384610dbe565b610d99565b90508281526020810184848401111561095057600080fd5b61095b848285610f5a565b509392505050565b600081359050610972816110b4565b92915050565b600082601f83011261098957600080fd5b8135610999848260208601610925565b91505092915050565b6000813590506109b1816110cb565b92915050565b6000813590506109c6816110e2565b92915050565b6000813590506109db816110f9565b92915050565b6000813590506109f081611110565b92915050565b600081359050610a0581611127565b92915050565b600060208284031215610a1d57600080fd5b6000610a2b84828501610963565b91505092915050565b600060208284031215610a4657600080fd5b6000610a54848285016109a2565b91505092915050565b600060208284031215610a6f57600080fd5b6000610a7d848285016109b7565b91505092915050565b600060208284031215610a9857600080fd5b6000610aa6848285016109e1565b91505092915050565b600080600080600060a08688031215610ac757600080fd5b6000610ad5888289016109e1565b9550506020610ae6888289016109cc565b9450506040610af7888289016109cc565b9350506060610b08888289016109f6565b925050608086013567ffffffffffffffff811115610b2557600080fd5b610b3188828901610978565b9150509295509295909350565b610b4781610e76565b82525050565b610b5681610e88565b82525050565b6000610b6782610def565b610b718185610dfa565b9350610b81818560208601610f69565b610b8a8161102b565b840191505092915050565b610b9e81610f12565b82525050565b610bad81610f36565b82525050565b6000610bc0602683610e0b565b9150610bcb8261103c565b604082019050919050565b6000610be3602083610e0b565b9150610bee8261108b565b602082019050919050565b610c0281610eb8565b82525050565b610c1181610ef4565b82525050565b610c2081610efe565b82525050565b6000602082019050610c3b6000830184610b3e565b92915050565b6000604082019050610c566000830185610b3e565b610c636020830184610c08565b9392505050565b6000602082019050610c7f6000830184610b4d565b92915050565b6000602082019050610c9a6000830184610b95565b92915050565b6000602082019050610cb56000830184610ba4565b92915050565b60006020820190508181036000830152610cd481610bb3565b9050919050565b60006020820190508181036000830152610cf481610bd6565b9050919050565b6000602082019050610d106000830184610c08565b92915050565b600060a082019050610d2b6000830188610c08565b610d386020830187610bf9565b610d456040830186610bf9565b610d526060830185610c17565b8181036080830152610d648184610b5c565b90509695505050505050565b6000604082019050610d856000830185610c17565b610d926020830184610c08565b9392505050565b6000610da3610db4565b9050610daf8282610f9c565b919050565b6000604051905090565b600067ffffffffffffffff821115610dd957610dd8610ffc565b5b610de28261102b565b9050602081019050919050565b600081519050919050565b600082825260208201905092915050565b600082825260208201905092915050565b6000610e2782610ef4565b9150610e3283610ef4565b9250817fffffffffffffffffffffffffffffffffffffffffffffffffffffffffffffffff0483118215151615610e6b57610e6a610fcd565b5b828202905092915050565b6000610e8182610ed4565b9050919050565b60008115159050919050565b6000610e9f82610e76565b9050919050565b6000610eb182610e76565b9050919050565b60006fffffffffffffffffffffffffffffffff82169050919050565b600073ffffffffffffffffffffffffffffffffffffffff82169050919050565b6000819050919050565b600067ffffffffffffffff82169050919050565b6000610f1d82610f24565b9050919050565b6000610f2f82610ed4565b9050919050565b6000610f4182610f48565b9050919050565b6000610f5382610ed4565b9050919050565b82818337600083830152505050565b60005b83811015610f87578082015181840152602081019050610f6c565b83811115610f96576000848401525b50505050565b610fa58261102b565b810181811067ffffffffffffffff82111715610fc457610fc3610ffc565b5b80604052505050565b7f4e487b7100000000000000000000000000000000000000000000000000000000600052601160045260246000fd5b7f4e487b7100000000000000000000000000000000000000000000000000000000600052604160045260246000fd5b6000601f19601f8301169050919050565b7f4f776e61626c653a206e6577206f776e657220697320746865207a65726f206160008201527f6464726573730000000000000000000000000000000000000000000000000000602082015250565b7f4f776e61626c653a2063616c6c6572206973206e6f7420746865206f776e6572600082015250565b6110bd81610e76565b81146110c857600080fd5b50565b6110d481610e94565b81146110df57600080fd5b50565b6110eb81610ea6565b81146110f657600080fd5b50565b61110281610eb8565b811461110d57600080fd5b50565b61111981610ef4565b811461112457600080fd5b50565b61113081610efe565b811461113b57600080fd5b5056fea264697066735822122043a2077bbd03c309a375de6a8ee1f430d3183ac16d2e1d1bfe5ab98fe66268c464736f6c63430008040033",
  "linkReferences": {},
  "deployedLinkReferences": {}
}